:020000040002F8
:10600000506A0020C1630200C9630200CB63020032
:10601000CD630200CF630200D163020000000000E4
:10602000000000000000000000000000D363020038
:10603000D563020000000000D7630200D9630200AC
:10604000C5690200DB630200C9780200DB6302005D
:10605000DD6C0200DB63020031670200716A02003E
:10606000DB630200B1780200DB630200DB63020045
:10607000DB630200DB630200DB630200DB63020020
:10608000FD7802004D6A0200DB630200DB63020060
:106090000D6D0200DB630200116D0200DB63020084
:1060A000DB630200DB630200DB630200DB630200F0
:1060B0001D6A0200DB630200000000000000000017
:1060C000DB6302002D6A02003D6A0200DB6302000E
:1060D000DB630200DB630200DB6302000000000000
:1060E00000000000000000000000000000000000B0
:1060F00000000000000000000000000000000000A0
:10610000000000000000000000000000000000008F
:10611000000000000000000000000000000000007F
:10612000000000000000000000000000000000006F
:10613000000000000000000000000000000000005F
:10614000000000000000000000000000000000004F
:10615000000000000000000000000000000000003F
:10616000000000000000000000000000000000002F
:10617000000000000000000000000000000000001F
:10618000000000000000000000000000000000000F
:1061900000000000000000000000000000000000FF
:1061A00000000000000000000000000000000000EF
:1061B00000000000000000000000000000000000DF
:1061C00000000000000000000000000000000000CF
:1061D00000000000000000000000000000000000BF
:1061E00000000000000000000000000000000000AF
:1061F000000000000000000000000000000000009F
:10620000DFF80CD000F0E6F90048004789A9020049
:10621000506A002030B450E8012F93B2C48923445F
:106220008489A34228BF1B1B0489A34202BFBFF37A
:106230002F8F002007E0C3EA020340E80134002C5E
:10624000E9D14FF001000A6030BC704750E8012FDF
:10625000C2EA024240E801210029F7D1704730B478
:1062600050E8022F1FFAA2F3C488A34202BFBFF373
:106270002F8F00200DE0C48923448489A34228BFC6
:106280001B1BC2EA034340E80234002CE8D14FF064
:1062900001000A6030BC704750E8022FC2EA224277
:1062A00040E802210029F7D17047034653E8022F46
:1062B000D988B2EB324F4FF0000017BF92B241EADB
:1062C000014142EA014104E05A68B2EB324F08BF93
:1062D000012043E80212002AE8D1704730B4044696
:1062E00054E8000F0D4644E80053002BF8D1156028
:1062F00030BC704730B4044654E8000F40EA010552
:1063000044E80053002BF7D1156030BC704730B41F
:10631000044654E8000F00EA010544E80053002B4E
:10632000F7D1156030BC704730B4044654E8000F14
:1063300080EA010544E80053002BF7D1156030BC1A
:10634000704730B4044654E8000F00EB010544E800
:106350000053002BF7D1156030BC704730B40446B1
:1063600054E8000FA0EB010544E80053002BF7D1DF
:10637000156030BC704770B404464FF0000054E81C
:10638000006F0D68AE4207BF44E80023012044E8D7
:1063900000630E60002B1CBF0020F0E770BC70474C
:1063A00030B4044654E8000F88422CBF451A054615
:1063B00044E80053002BF5D1156030BC7047000055
:1063C0000648804706480047FEE7FEE7FEE7FEE78F
:1063D000FEE7FEE7FEE7FEE7FEE7FEE7A175020047
:1063E00001620200202A04DB203A00FA02F10020B8
:1063F00070479140C2F1200320FA03F31943904003
:10640000704740EA01039B0703D009E008C9121F47
:1064100008C0042AFAD203E011F8013B00F8013B5E
:10642000521EF9D27047D2B201E000F8012B491E8A
:10643000FBD270470022F6E710B513460A46044621
:106440001946FFF7F0FF204610BD421C10F8011B53
:106450000029FBD1801A704710B5002200E0521CC1
:10646000835C8C5CA34201D1002BF8D1D8B2E1B29D
:10647000401A10BD034611F8012B00F8012B002A29
:10648000F9D11846704730B505460020034600E0B4
:106490005B1C934205D2EC5CC85C201A01D1002C35
:1064A000F6D130BD70B50F4D00B92868002412E058
:1064B0000A4602E09E4203D0521C1378002BF9D109
:1064C000DAB2224305D02BB124B1002100F8011B20
:1064D00004E00446401C0678002EE9D128602046DE
:1064E00070BD0000402C002070B5064601F0A2FBF4
:1064F000046805460A220021304600F033F82C607B
:1065000070BD2DE9F05F0546002092469B46884607
:106510000646814640241BE028464146474622461F
:1065200000F06AF853465A46C01A914110D31146FA
:1065300018462246FFF756FF2D1A67EB01084F4613
:10654000224601200021FFF74DFF17EB00094E41C5
:10655000201EA4F10104DFDC484631462A464346AA
:10656000BDE8F09F2DE9F04791460F46804604466E
:10657000002614F8015B2DB100F04EF80068405D74
:10658000C007F6D12B2D02D02D2D18D0641E4A46FF
:106590003946204600F044F827B13968A14201D1BC
:1065A000C7F8008071054FF002040BD54042002867
:1065B00003DD01F03FFB0460A007BDE8F08746F46F
:1065C0008066E4E70028F8DA01F034FB04606FF03D
:1065D0000040F2E7064C074D06E0E06840F001039A
:1065E00094E8070098471034AC42F6D3FFF70CFE4E
:1065F00084F40200A4F40200202A04DB203A21FAE9
:1066000002F00021704721FA02F3D040C2F12002CB
:10661000914008431946704700487047B4F30200A0
:106620002DE9F05F82460078002715468B460AF177
:106630000104B946302801D09DB113E014F8010BD4
:106640000127782803D0582801D045B10AE00DB1C0
:10665000102D07D10027102514F8010B02E00825A2
:1066600000E00A250026B0460EE005FB080005FB09
:1066700006F1012701EB10461FFA80F8B6F5803FBE
:1066800000D3B94614F8010B294600F018F8002889
:10669000EBDABBF1000F05D00FB1641E00E05446E9
:1066A000CBF80040B9F1000F06D001F0C3FA022187
:1066B0000160C81EBDE8F09F48EA0640FAE73A28A4
:1066C00000D2303820F02002412A01D3A2F1370055
:1066D000884201D34FF0FF30704770B58C1810F826
:1066E000015B15F0070301D110F8013B2A1106D117
:1066F00010F8012B03E010F8016B01F8016B5B1E31
:10670000F9D12B0705D40023521E0DD401F8013B0B
:10671000FAE710F8013BCB1A921C03E013F8015B77
:1067200001F8015B521EF9D5A142D8D3002070BDFB
:106730002DE9FF5F0025DFF88081A9464FF48077BF
:1067400001242E460095384605F072F838B1D8F885
:106750000403204203D0384605F060F825433F1D6E
:106760006400761CBFB2082EEDD34FF4BE742046F1
:1067700005F05EF848B1204605F050F845F00045B8
:106780006A460121002005F037F84C4E15F0FF0F46
:1067900015D0012700242F420DD008EB8401D1F839
:1067A0001005D1F81015C0F3042056F82420C1F3C9
:1067B000014102B190477F00641C082CEBD3002DEF
:1067C00076DA0020411E02AACDF8049042F820108B
:1067D0009246401CFAD0B34600252C460BEB040031
:1067E0005F4610F8506F90F9000026F0C009401C79
:1067F00037D002A9484604F0A2FC00B34FEA96182D
:10680000484603F013F857F8207017B9B8F1030F92
:1068100027D1B8F1030F03D101A9484604F097FC32
:106820004FF0A04101EB8900D0F800076946C0F3A2
:106830000146484604F083FC10B1022E02D010E05D
:10684000032E0ED1B8F1030F07D1022E32D0022150
:10685000484604F06BFF6D1CEDB217B14146484647
:10686000B847641C042CB9D3002D21D0012403AAFD
:106870002146002004F0C0FF0020694603AA51F819
:10688000206052F82030B34203D1401CF7D0002CD6
:106890000ED1002001AC534652F8206041F8206030
:1068A00054F8206043F82060401CF5D0002D93D1AF
:1068B000BDE8FF9F0321CBE7006000404C43002070
:1068C00070B506460D461B2004F041FF072425FA4B
:1068D00004F0C0074FF01A0002D004F055FF01E0A9
:1068E00004F035FF1F2004F04FFF1F2004F02FFF9E
:1068F000641EE4B2072CEAD9072426FA04F0C00784
:106900004FF01A0002D004F03FFF01E004F01FFF37
:106910001F2004F039FF1F2004F019FF641EE4B2A9
:10692000072CEAD9BDE870401B2004F02DBF000001
:106930000148007870470000E42A0020044880885D
:10694000A0F57F41FF3901D001207047002070473A
:10695000E42A00200148007870470000D42B002072
:1069600000F01F02012191404009800000F1E02069
:10697000C0F88012704700F01F02012191404009C9
:10698000800000F1E020C0F80011704700F01F0205
:10699000012191404009800000F1E020C0F8001280
:1069A00070474907090E002806DA00F00F0000F1D1
:1069B000E02080F8141D704700F1E02080F80014FA
:1069C0007047000070B54FF48076304604F01CFD2F
:1069D000114CB50560B1304604F01DFD0120C5F82D
:1069E0000803607920B90120607121680020884780
:1069F0004FF48276304604F007FD00280AD0304676
:106A000004F009FD0220C5F808032168BDE87040C4
:106A10000120084770BD0000082C002001490248F1
:106A200003F050BE7C45002000C0014001490248EF
:106A300003F048BE8445002000100240014902488E
:106A400003F040BE8C450020002002400748002192
:106A5000C0F84011C0F84411C0F84811C0F84C11FA
:106A6000C0F80011C0F8041108F030B8001001405F
:106A70000E48D0F804310E4A00211BB1C0F80411B1
:106A800001235370D0F808310BB1C0F80811D0F8C9
:106A90000C31002B09D0C0F80C111078401E10F0FA
:106AA000FF00107001D001F021BB70470070004062
:106AB000BC2B00202DE9F04107460B4815460E4639
:106AC000007808B900F02CFFEFF31184202080F348
:106AD00011882A463146384600F008F8E1B281F3C1
:106AE0001188BDE8F08100009445002070B50E4685
:106AF000144900EB400001EBC0051446E86A183564
:106B000020B101280FD0022805D113E0284600F05B
:106B10003BFFA04201D2002411E022463146284624
:106B200001F052F80BE0284600F02EFFA042F4D20C
:106B30000446F2E73146284601F019F8044620469B
:106B400070BD0000944500200FB408B504A9009161
:106B50006A46039900F003F801B05DF814FB2DE9D3
:106B6000F04198B0804607A8029040200026CDE969
:106B70000306CDE9056815460C4614F8011B0029EB
:106B80006FD0252908D002A800F0D2FF0598002870
:106B9000F3DA18B0BDE8F081002001222178232922
:106BA0001ED02B2919D02D2902D0302908D102E07E
:106BB00040F0010001E040F00200641C002AEDD129
:106BC00000222178A1F130030A2B0CD202EB8202C1
:106BD00001EB4202303A641CF3E740F00400ECE7BA
:106BE00040F00800E9E70023CFB22E2F0BD114F8B4
:106BF000011FA1F130070A2F05D203EB830301EB3C
:106C00004303303BF3E76C290DD068290BD0702982
:106C10004AD00BDC252914D058292BD063290CD05D
:106C2000642911D112E014F8011FECE773292CD06C
:106C3000752917D0782907D11CE02868011D296023
:106C4000017802A800F074FF641C9FE729680F1DFB
:106C50002F600968CDE900200A2202A800F09FFEFB
:106C6000F2E72BE029680F1D2F600968CDE90020AD
:106C70000A2206E029680F1D2F600968CDE900206F
:106C8000102202A800F0EEFEDEE72868011D296050
:106C9000076817F8011B0029D6D002A800F048FFAA
:106CA00005980028F5DACFE72868011D29600168FA
:106CB0000820CDE9000603461022E2E705980028E7
:106CC0007FF767AF049820B1024607A94046FFF757
:106CD000F1FEDDE90410084405905AE710B54FF0C5
:106CE0004021D1F8180100280DD00020C1F818016A
:106CF000054C2070206904F06AFD6069002802D00C
:106D0000BDE81040004710BDD42B002007F036BE70
:106D100004F0B0BE2DE9F0414FF00108DC27E32676
:106D20000525022004F03EFD032004F03BFD404613
:106D300004F040FF404604F03DFF022004F00EFD49
:106D4000404604F037FF032004F008FD404604F0FD
:106D500031FF002407FA04F000064FF0020002D5CC
:106D600004F020FD01E004F0F9FC404604F022FFAD
:106D7000032004F017FD404604F01CFF032004F03C
:106D8000EDFC404604F016FF641CE4B2082CE1D38D
:106D9000022004F0E3FC404604F00CFF032004F062
:106DA00001FD404604F006FF032004F0D7FC4046F6
:106DB00004F000FF022004F0F5FC404604F0FAFE67
:106DC000002406FA04F000064FF0020002D504F099
:106DD000E9FC01E004F0C2FC404604F0EBFE0320B5
:106DE00004F0E0FC404604F0E5FE032004F0B6FCAD
:106DF000404604F0DFFE641CE4B2082CE1D302201C
:106E000004F0ACFC404604F0D5FE032004F0CAFCBC
:106E1000404604F0CFFE032004F0A0FC404604F0FE
:106E2000C9FE022004F0BEFC404604F0C3FE00246C
:106E300005FA04F000064FF0020002D504F0B2FC9F
:106E400001E004F08BFC404604F0B4FE032004F0A3
:106E5000A9FC404604F0AEFE032004F07FFC40464F
:106E600004F0A8FE641CE4B2082CE1D3022004F074
:106E700075FC404604F09EFE032004F093FC40465F
:106E800004F098FE032004F069FC404604F092FEF2
:106E9000022004F087FC404604F08CFE404604F0DB
:106EA00089FE032004F07EFC404604F083FE0220AD
:106EB00004F078FC404604F07DFEDC27E2266025E5
:106EC000022004F06FFC032004F06CFC404604F048
:106ED00071FE404604F06EFE022004F03FFC404686
:106EE00004F068FE032004F039FC404604F062FE22
:106EF000002407FA04F000064FF0020002D504F067
:106F000051FC01E004F02AFC404604F053FE03204B
:106F100004F048FC404604F04DFE032004F01EFC43
:106F2000404604F047FE641CE4B2082CE1D3022082
:106F300004F014FC404604F03DFE032004F032FC53
:106F4000404604F037FE032004F008FC404604F0FD
:106F500031FE022004F026FC404604F02BFE002403
:106F600006FA04F000064FF0020002D504F01AFC05
:106F700001E004F0F3FB404604F01CFE032004F0A3
:106F800011FC404604F016FE032004F0E7FB4046E7
:106F900004F010FE641CE4B2082CE1D3022004F0DB
:106FA000DDFB404604F006FE032004F0FBFB4046F8
:106FB00004F000FE032004F0D1FB404604F0FAFD8B
:106FC000022004F0EFFB404604F0F4FD002405FA33
:106FD00004F000064FF0020002D504F0E3FB01E0EC
:106FE00004F0BCFB404604F0E5FD032004F0DAFBAE
:106FF000404604F0DFFD032004F0B0FB404604F0FF
:10700000D9FD641CE4B2082CE1D3022004F0A6FBF5
:10701000404604F0CFFD032004F0C4FB404604F0DA
:10702000C9FD032004F09AFB404604F0C3FD022092
:1070300004F0B8FB404604F0BDFD404604F0BAFD44
:10704000032004F0AFFB404604F0B4FD022004F03E
:10705000A9FB404604F0AEFD404604F0ABFD4046BF
:10706000BDE8F04104F0A6BD2DE9F04105464FF022
:107070000108DC27E426022004F094FB032004F03E
:1070800091FB404604F096FD404604F093FD02203B
:1070900004F064FB404604F08DFD032004F05EFB29
:1070A000404604F087FD002407FA04F000064FF084
:1070B000020002D504F076FB01E004F04FFB4046ED
:1070C00004F078FD032004F06DFB404604F072FDEF
:1070D000032004F043FB404604F06CFD641CE4B262
:1070E000082CE1D3022004F039FB404604F062FD95
:1070F000032004F057FB404604F05CFD032004F03D
:107100002DFB404604F056FD022004F04BFB4046A8
:1071100004F050FD002406FA04F000064FF00200CF
:1071200002D504F03FFB01E004F018FB404604F0F8
:1071300041FD032004F036FB404604F03BFD0320F4
:1071400004F00CFB404604F035FD641CE4B2082C4E
:10715000E1D3022004F002FB404604F02BFD0320A3
:1071600004F020FB404604F025FD032004F0F6FA6D
:10717000404604F01FFD022004F014FB404604F0DA
:1071800019FD0024022004F0E9FA404604F012FD43
:10719000032004F007FB404604F00CFD032004F03C
:1071A000DDFA404604F006FD641CE4B2082CE9D385
:1071B000022004F0D3FA404604F0FCFC032004F063
:1071C000F1FA404604F0F6FC032004F0C7FA40460A
:1071D00004F0F0FC022004F0E5FA404604F0EAFC7A
:1071E000404604F0E7FC032004F0DCFA404604F0DB
:1071F000E1FC022004F0D6FA404604F0DBFC4046F5
:1072000004F0D8FC404604F0D5FC6F496D48086096
:10721000DC27E026022004F0C5FA032004F0C2FABD
:10722000404604F0C7FC404604F0C4FC022004F0D1
:1072300095FA404604F0BEFC032004F08FFA404665
:1072400004F0B8FC002407FA04F000064FF0020036
:1072500002D504F0A7FA01E004F080FA404604F0F9
:10726000A9FC032004F09EFA404604F0A3FC03208E
:1072700004F074FA404604F09DFC641CE4B2082C4F
:10728000E1D3022004F06AFA404604F093FC0320A4
:1072900004F088FA404604F08DFC032004F05EFA06
:1072A000404604F087FC022004F07CFA404604F0DB
:1072B00081FC002406FA04F000064FF0020002D51B
:1072C00004F070FA01E004F049FA404604F072FC60
:1072D000032004F067FA404604F06CFC032004F03D
:1072E0003DFA404604F066FC641CE4B2082CE1D38D
:1072F000022004F033FA404604F05CFC032004F062
:1073000051FA404604F056FC032004F027FA4046A8
:1073100004F050FC022004F045FA404604F04AFC18
:10732000002405FA04F000064FF0020002D504F034
:1073300039FA01E004F012FA404604F03BFC032065
:1073400004F030FA404604F035FC032004F006FA5D
:10735000404604F02FFC641CE4B2082CE1D3022068
:1073600004F0FCF9404604F025FC032004F01AFA6E
:10737000404604F01FFC032004F0F0F9404604F0FE
:1073800019FC022004F00EFA404604F013FC4046BB
:1073900004F010FC032004F005FA404604F00AFC57
:1073A000022004F0FFF9404604F004FC404604F0DB
:1073B00001FC404604F0FEFBBDE8F041102004F063
:1073C00041B800003546526E000601402DE9F041FB
:1073D000DC27E1264FF001080F2800D90F200828EC
:1073E0000CD003DC30B1042804D105E00C2807D010
:1073F0000F2807D0072506E0112504E01B2502E031
:10740000252500E02F25FFF785FC022004F0CAF9AE
:10741000032004F0C7F9404604F0CCFB022004F03E
:107420009DF9404604F0C6FB032004F097F940465E
:1074300004F0C0FB002407FA04F000064FF002003D
:1074400002D504F0AFF901E004F088F9404604F0F9
:10745000B1FB032004F0A6F9404604F0ABFB032087
:1074600004F07CF9404604F0A5FB641CE4B2082C4F
:10747000E1D3022004F072F9404604F09BFB0320A4
:1074800004F090F9404604F095FB032004F066F9FF
:10749000404604F08FFB022004F084F9404604F0DB
:1074A00089FB002406FA04F000064FF0020002D522
:1074B00004F078F901E004F051F9404604F07AFB59
:1074C000032004F06FF9404604F074FB032004F03D
:1074D00045F9404604F06EFB641CE4B2082CE1D38D
:1074E000022004F03BF9404604F064FB032004F062
:1074F00059F9404604F05EFB032004F02FF94046A2
:1075000004F058FB022004F04DF9404604F052FB11
:10751000002405FA04F000064FF0020002D504F042
:1075200041F901E004F01AF9404604F043FB03205E
:1075300004F038F9404604F03DFB032004F00EF956
:10754000404604F037FB641CE4B2082CE1D302206F
:1075500004F004F9404604F02DFB032004F022F966
:10756000404604F027FB032004F0F8F8404604F0FE
:1075700021FB022004F016F9404604F01BFB4046B4
:1075800004F018FB032004F00DF9404604F012FB50
:10759000022004F007F94046BDE8F04104F00ABBC0
:1075A000F0B5B248B14A01260078121D0023111D22
:1075B000350706280BD11478240708D10C78C4F3BA
:1075C0000314032C06D0042C04D0052C02D006286A
:1075D00007D00EE0B5F82443A54FC4F304243C6063
:1075E00002E01478240704D10C78C4F30314032CAC
:1075F00002D0062804D00FE09F4F9E4C7C670EE01F
:107600001478240708D10C78C4F30314032C06D093
:10761000042C04D0052C02D0062807D00EE0D5F8A3
:107620004442964FC4F342343C6002E0147824078D
:1076300004D10C78C4F30314032C02D0062806D01E
:1076400011E08F4C276827F0807727600EE01478D0
:10765000240708D10C78C4F30314032C06D0042C9F
:1076600004D0052C02D006280AD011E04FF0804447
:10767000C4F80C31C4F81031804C241F236002E0A0
:107680001478240704D10C78C4F30314032C02D01B
:10769000062805D00CE0794F032464373C600AE0EB
:1076A0001478240704D10C78C4F30314032C02D0FB
:1076B00006280DD014E0734F05243C60714C7834DB
:1076C0002660704C083423603F243F1D3C6002E07C
:1076D0001478240704D10C78C4F30314052C02D0C9
:1076E000062857D062E0684C2468684F3C60664CBE
:1076F000241D24683F1D3C60634C083424683F1DF2
:107700003C60614C0C3424683F1D3C605E4C10347E
:1077100024683F1D3C605C4C143424683F1D3C6071
:10772000594C18342468594F20373C60564C1C344F
:1077300024683F1D3C60544C203424683F1D3C604D
:10774000514C243424683F1D3C604F4C283424683D
:107750003F1D3C604C4C2C3424683F1D3C604A4C1F
:1077600030342468494F40373C60474C34342468F7
:107770003F1D3C60444C383424683F1D3C60424C03
:107780003C3424683F1D3C603F4C403424683F1D1E
:107790003C6002E01478240708D10C78C4F3031489
:1077A000032C06D0042C04D0052C02D0062807D0C8
:1077B00019E0D5F85802364A00F04F00106002E098
:1077C000107800070FD10878C0F30310032803D006
:1077D000042801D0052806D12E480168C90702D027
:1077E0006FF001010160D5F83001062808D1D5F805
:1077F0003401062804D12848016841F48061016001
:107800001F487438016841F470010160BFF34F8F65
:10781000BFF36F8F4FF01022D2F80C02C00720D0B8
:107820001E4C26601E4801680029FCD0D2F80C12BC
:1078300021F00101C2F80C1201680029FCD023607C
:1078400001680029FCD0BFF34F8F0D48F038016864
:10785000144A01F4E06111430160BFF34F8F00BF90
:10786000FDE7124910480860F0BD0000E00F00F08D
:10787000403501400DF0ADBA00C007403C05004066
:10788000FCED00E0105600400404001020C500404C
:10789000E40E0040000400403C17004004E50140B5
:1078A00000E401400400FA050090D003B42B00204E
:1078B0000448D0F84011012902D10021C0F840113C
:1078C0007047000000900040084810B50023C0F841
:1078D0000831074802680849064C08882254401CB1
:1078E00080B20880C82800D30B8010BD0020004063
:1078F00018250040A6410020EC2B002038B5064C8E
:107900002068002806D00548406880470020206095
:107910002068009038BD000000010140102C0020BC
:1079200010B5124C032000212061606110A0A061FD
:1079300004F1A800E0614FF48060A16220626162FE
:107940000BA0E162206604F5956060661020216757
:10795000C4E91A01616709A1E01DFEF78BFD08A1CA
:107960002046FEF787FD2020A07110BD9445002021
:107970005465726D696E616C0000000052545400D1
:1079800053454747455200000269C1688A4203D8FF
:107990008068401A104400E0501A401E70472DE9DC
:1079A000FC5F0E008046DDE90C47C6F100009946F9
:1079B0009246834600D40846012502E090FBFAF087
:1079C0006D1C5045FADAA94500D94D4624B1002E68
:1079D00001DB780700D5641EB80702D5B9F1000FA6
:1079E0000FD0F8070DD164B1A5420AD2202140463C
:1079F000641E00F09DF8D8F80C000028F3DABDE80A
:107A0000FC9FD8F80C000028F9DB002E02DA5E4655
:107A10002D2102E0780707D52B21404600F088F899
:107A2000D8F80C000028EADB07F0030002280FD189
:107A3000B9F1000F0CD15CB1A54209D2302140460A
:107A4000641E00F075F8D8F80C000028F3DAD6E7C9
:107A5000CDE900474B4652463146404600F002F819
:107A6000CDE700002DE9F84F8246DDE90A4B0125FC
:107A700099461746884608462E4602E0B0FBF7F0C6
:107A8000761CB842FAD2B14500D94E465FEACB70B7
:107A900017D1B4B15FEA8B7002D5B9F1000F02D0F3
:107AA000202000900BE03020FBE75046641E009938
:107AB00000F03EF8DAF80C00002835DB0CB1A642E5
:107AC000F3D3DAF80C0000282EDBB9F1010F02D94C
:107AD000A9F1010903E0B8FBF5F0B84201D37D43F9
:107AE000F3E7DFF84890B8FBF5F000FB158819F8CC
:107AF0000010504600F01CF8DAF80C00002803DBF8
:107B0000B5FBF7F5002DEED15FEACB700CD0002C61
:107B10000AD0A64208D220215046641E00F008F880
:107B2000DAF80C000028F2DABDE8F88F20F3020042
:107B300010B50446D4E90130421C934205D32368B2
:107B40001954A260E068401CE060D4E9010282425E
:107B500009D121682069FEF7ADFFA168884203D0F2
:107B60004FF0FF30E06010BD0020A06010BD2DE997
:107B7000F047C4681746894605464FF00008286953
:107B8000A04201D9061B02E0A968201A0E1AA868B3
:107B9000761E001BB04200D80646BE4200D33E46C9
:107BA0006868324620444946FEF72BFCA868BF1B94
:107BB0003444B044B144A04200D10024EC60002F12
:107BC000DDD14046BDE8F0872DE9F0410446884606
:107BD000D4E90207C51BE168606816460844B5424F
:107BE00006D94146FEF70DFCB819E060BDE8F0810A
:107BF0002A464146FEF705FC761B08EB0501324696
:107C00006068FEF7FEFBE660F0E700000FB4084B8B
:107C100010B504A902AA039800F032F8044602A99C
:107C2000002000F05EFA204610BC5DF814FB000056
:107C3000E380020000487047442C002002E008C89E
:107C4000121F08C1002AFAD170477047002001E0D6
:107C500001C1121F002AFBD170470000012120281A
:107C600003DA81400548014003E0402802DA203869
:107C7000814009B10120704700207047FC06FFBD1C
:107C80002DE9FF4F8DB00F460546002606E025285A
:107C90000BD0DDE90F1290476D1C761C2878002868
:107CA000F5D111B03046BDE8F08F0024A246A146C0
:107CB0000122EC4900E0044315F8013F203B02FAA1
:107CC00003F00842F7D128782A2810D06FF02F024D
:107CD0002878A0F13001092914D80AEB8A0102EBB7
:107CE000410144F0020400EB010A6D1CF0E701CFF2
:107CF0005FEA000A03D544F40054CAF1000A44F0D4
:107D000002046D1C28782E2817D115F8010F44F0B5
:107D100004042A280ED06FF02F022878A0F1300139
:107D200009290AD809EB890102EB410100EB01099D
:107D30006D1CF2E757F8049B6D1C28786C280FD057
:107D400006DC4C2817D068280DD06A2814D104E02E
:107D5000742810D07A280FD10DE044F400140AE002
:107D600044F4801401E044F440146978814202D163
:107D700004F580146D1C6D1C2A786E2A1FD00CDC53
:107D8000632A31D004DC002A8BD0582A11D1A3E019
:107D9000642A68D0692A0CD165E0732A2ED004DCED
:107DA0006F2A73D0702A04D19BE0752A6FD0782A8D
:107DB0006ED01046DDE90F129047761C50E1C4F3F7
:107DC0000250022806D0032809D0042801CF09D088
:107DD000066045E101CFF117C0E9006140E101CF44
:107DE00006803DE106703BE117F8040B8DF80000BA
:107DF00000208DF80100EB46012003E057F804BB9A
:107E00004FF0FF3061074FF0000102D40DE008F1A0
:107E10000101884649450FDA8045F8DB1BF8081058
:107E20000029F4D108E008F1010188468142FADB1B
:107E30001BF808100029F6D1DDE90F23AAEB080092
:107E40008146214600F036F9304400EB080604E094
:107E5000DDE90F121BF8010B9047B8F10108F7D2CA
:107E600021464846F7E00A21C4F302534FF0000BC5
:107E70000891022B04D001CFC117032B09D00AE0CF
:107E8000FF1D27F00707F7E8020108E032E01FE0D6
:107E900020E000B2C117042B01D140B2C117031E6C
:107EA00071F1000307DA4FF0000CD0EB0C006CEB23
:107EB00001012D2302E0230504D52B238DF8243066
:107EC000012303E0E30701D02023F7E7984658E0B9
:107ED0000A2110E010210EE010204FF0000B089056
:107EE0000CE010214FF0000B44F004044FF008099F
:107EF000089103E008214FF0000B0891C4F30253EE
:107F0000022B04D001CF0021032B06D006E0FF1D79
:107F100027F00707F7E8020103E080B2042B00D145
:107F2000C0B24FF0000823072BD5702A07D0DDF828
:107F300020C08CF0100C5CEA0B0C05D00EE0402346
:107F40008DF82430012308E050EA010306D03023E5
:107F50008DF824308DF8252002239846DDF820C0C6
:107F60008CF0080C5CEA0B0C0BD150EA010301D138
:107F7000630706D530238DF824304FF00108A9F1AE
:107F80000109582A04D038A20B9208AA0A920BE0E1
:107F90003AA2F9E75B46089AFEF7B3FA0B9B9B5CA3
:107FA0000A9A521E0A92137050EA0102F2D10A98FC
:107FB000ADEB000000F1200B600702D524F4803403
:107FC00001E04FF00109D94502DDA9EB0B0000E00B
:107FD000002000EB0B0141440890AAEB010AE003EA
:107FE00006D4DDE90F232146504600F063F806442D
:107FF0004FF0000908E009A911F80900DDE90F12A6
:10800000904709F10109761CC145F4DBE0030CD56A
:10801000DDE90F232146504600F04CF8064404E009
:10802000DDE90F1230209047761C0899481E089011
:108030000029F5DC08E00A980A990078491C0A91A1
:10804000DDE90F129047761CBBF10001ABF1010B8B
:10805000F1DC21465046DDE90F2300F019F8064413
:108060006D1C1BE6092801003031323334353637B8
:108070003839616263646566000000003031323374
:108080003435363738394142434445460000000014
:108090002DE9F041044600251E461746880404D405
:1080A00005E039462020B0476D1C641EF9D52846EE
:1080B000BDE8F0812DE9F041044600251E469046BA
:1080C000C80301D5302700E02027880404D505E047
:1080D00041463846B0476D1C641EF9D52846BDE8B8
:1080E000F0810A68531C0B60107070470249012030
:1080F000C968486070470000BC2B0020800701D091
:108100000020704701207047C3688B4206D8114495
:108110000069491E814201D8012070470020704744
:1081200010B50321044800F051FF002803D0BDE83A
:10813000104000F04BB810BDF0380020044890F813
:10814000540074DF002801D000F040B870470000F0
:10815000F038002010B5946801F09CFF02462346D9
:108160000DA10020FEF7F0FC002C14D0082C12D03A
:10817000132C10D0112C0ED0052C0CD0BFF34F8F28
:1081800010490868104A00F4E06010430860BFF32B
:108190004F8F00BFFDE710BD0A2564206170705F3E
:1081A0006572726F725F6661756C745F68616E6430
:1081B0006C6572202F206572725F636F6465203D6D
:1081C000202564000CED00E00400FA050EB5002146
:1081D0000091CDE901106A4644F20100FFF7BAFFB1
:1081E0000EBD0000084B9B7823B12AB120B1006876
:1081F000037C1BB1082070470720704700230374DD
:108200004174426118467047A843002070B505F0DC
:10821000ABF9104800240B21047044700E4D81709E
:1082200014206C602C706C70FEF79AFB06211420F1
:10823000FEF7B7FB1420FEF79EFB084804600621FA
:108240001120FEF7AEFB0548001F0068A860002063
:1082500070BD0000A8430020182C00200815014024
:108260002DE9FC47DFF8749099F802305BB350B306
:10827000052902D20720BDE8FC8743691BB3437C74
:10828000012B22D0002705460024884616468DF88B
:108290000040684600F036F801A806F093FDB0B142
:1082A000012101700E4945600968C0E90218C0E962
:1082B00004769DF8040089F801009DF8000000F0A4
:1082C00043F834B108E00820D5E70F46DBE7042483
:1082D000F3E71420FEF75AFB2046CCE7A843002022
:1082E000041501400649897839B130B1416921B19D
:1082F00000210174022106F0C7BB0820704700006E
:10830000A843002030B5EFF3108372B60C4A94688E
:10831000012184B991604FF0E021D1F88051094CDE
:1083200025401560C1F88041D1F8844154604A1756
:10833000C1F8842100210170002B00D162B630BD4C
:10834000B4440020FC06FFBD0B498A68002A11D006
:1083500000280FD1EFF3108072B60B684FF0E022C7
:10836000C2F800314B68C2F8043100228A6000284C
:1083700000D162B670470000B444002070B5FEF72B
:1083800073FE0A4D0A4E4FF6FF74072003F0F4F90E
:10839000002809D007A10020FEF7D6FB0A2003F031
:1083A0005DF83560641EF0D170BD00003546526E38
:1083B000000601402E0000002DE9FC5F01F06AFE7E
:1083C00008274FF000090024FF26DFF858A1DFF846
:1083D00058B10CE05DB1A5B38DF8049001A806F08A
:1083E000E7FB78B39DF80430162B2CD032E0052C37
:1083F00015D2DFE804F003060B0E11004FF41650FF
:1084000001E04FF4964006F049FC0DE04FF41640B1
:10841000F9E74FF46140F6E74FF4E130F3E74FF44A
:10842000165006F03BFC01240125102006F018FC34
:10843000042006F015FC012006F012FC01F02AFED3
:10844000804613E006E02646324638A10020FEF7BB
:108450007BFB052401F01EFEA0EB08000A2805D3D3
:1084600001F018FE0025641C8046E4B2CBF800A0A1
:10847000042CAFD9FF2E36D0304C6078B04202D1F8
:108480002079B8422BD066702771012002F088FC59
:10849000642002F0E3FFCDF8009020794FF4C0256E
:1084A0000102E0780843617841EA0021207840EA3F
:1084B000012004F063FD684604F0F6FA0146284600
:1084C000009A02F04FFD0099012000EB910002F0AC
:1084D000C5FF0A2002F0C2FF1948FF21017000F019
:1084E000D9F8BDE8FC9F164C207801280BD04F200E
:1084F000FFF744FF4E20FFF741FF7F1CFFB20A2F1A
:10850000FFF461AFEDE74FF0A0414FF40000C1F878
:108510000C05192003F04DF902202070642002F0B0
:108520009DFFEAE73546526E000601400A5B25646E
:108530005D5278203A20307825780000782E00208F
:10854000402B00202DE9F05F00252C4601F0A2FD14
:108550008146162003F010F9DFF8FCB04FF0010A55
:10856000012863D03D4E3E4F4FF47A78162003F039
:1085700003F968B113E0002DF8D0012D11D0022DC0
:1085800014D0032D20D0042D38D0052D41D150E03A
:10859000641CE4B20A2C3CD90024012539E00024F3
:1085A00037E04F20FFF7EAFE022532E0162003F005
:1085B000E3F80128F3D1641CE4B20A2C29D900F0B5
:1085C00055F80024032524E0162003F0D5F80028F0
:1085D000E5D1641CE4B20A2C1BD9172003F0E9F89A
:1085E0004FF0A0424FF00071C2F80C158BF800A0BC
:1085F000642002F033FF002404250AE0162003F073
:10860000BBF80128CBD1641CE4B20A2C01D90024A8
:1086100005253E6001F03EFDA0EB09004045AAD3D0
:1086200000F024F89BF80000FF2813D00020BDE8DC
:10863000F09F0C4C002020600B490E2008600B209E
:1086400003F0B7F80E2003F0B4F8C4F800A0FFF769
:10865000B3FEE5E70120EAE7402B00203546526EE5
:1086600000060140002000401425004010B5074CD2
:108670000020206006490B20086003F09AF80E20C5
:1086800003F097F80120206010BD0000002000409A
:10869000142500402DE9F047DFF87C918AB0DFF81F
:1086A0007481C9F800805DA16846FFF7AFFA68469B
:1086B00006F0E8FA60A16846FFF7A8FA684606F0F7
:1086C000E1FA64A366A269A16846FFF79FFA6846CB
:1086D00006F0D8FA694C2078052803D0062803D084
:1086E000072803D066A102E068A100E06AA16846FD
:1086F000FFF78CFA684606F0C5FA6BA16846FFF7EB
:1087000085FA2079082803D0092803D00A2810D038
:108710006BA100E06FA16846FFF778FA684606F0A3
:10872000B1FA6078052842D2DFE800F041053B3D10
:108730003F006DA1EFE771A16846FFF767FA684651
:1087400006F0A0FA04F0A8F9024671A16846FFF706
:108750005DFA684606F096FA04F0A2F9024670A1A6
:108760006846FFF753FA684606F08CFAE078C0F1E5
:108770001000C11700EB9170012101EBA0026CA168
:108780006846FFF743FA684606F07CFA6CA1684633
:10879000FFF73CFA684606F075FA6C488788C5888A
:1087A00028E06BA1C8E76FA1C6E773A1C4E777A172
:1087B000C2E77E1B1E2E00D3212605F5006080B285
:1087C000774B3246694601F03BFB01E0C9F8008077
:1087D000FEF7C0F80028F9D10024EA4607E00AEBCA
:1087E0000400641CC07806F03BFAC9F80080A64279
:1087F000F5D83544AF42DCD869231B2269A168460D
:10880000FFF704FA684606F03DFAC9F800800AB09E
:10881000BDE8F0873546526E0006014053686F7020
:108820004F6E41697220504F5320436F6E6E6563E7
:10883000746F720A000000003D3D3D3D3D3D3D3DF1
:108840003D3D3D3D3D3D3D3D3D3D3D3D3D3D3D3D58
:108850000A0000004D617220313020323032300089
:10886000534F415F50435F3030310000462F572057
:108870005665723A2025732025730A00782E002051
:108880004D4F4445203A20504F530A004D4F444528
:10889000203A204341540A004D4F4445203A204B92
:1088A00045595041440A00004C414E47203A20B0FF
:1088B000A1B3AAB4D9B6F3B8B6B9D90A000000007A
:1088C00054595045203A205052494E544552204167
:1088D0000A00000054595045203A205052494E5445
:1088E000455220420A00000054595045203A205079
:1088F00052494E54455220430A000000424155441B
:1089000052415445203A2031393230300A000000BB
:10891000434152442043484B3A25730A000000006B
:10892000544F54414C20414D543A25730A000000E5
:10893000564F4C554D45203A2025640A0000000052
:10894000515220434F4445203A200000483B00202C
:108950004241554452415445203A20333834303056
:108960000A0000004241554452415445203A203506
:10897000373630300A0000004241554452415445D8
:10898000203A203131353230300A0000424155441E
:1089900052415445203A20393630300A0000000058
:1089A000EFD302000A0A0A0A0A25632563000000C1
:1089B0002DE9F0430024814625462F466FF02B0019
:1089C000404E24E0A3EB040CBCF1020F04DB12F8D0
:1089D00004C0BCF10D0F2CD012F804C0BCF10A0F7A
:1089E00013D0BCF13D0F2CD0BCF17F0F1FD812F873
:1089F00004C016F80CC0BCF17F0F18D0BCF1400FBA
:108A000001D2002F13D16D1CADB2641CA4B29C42E4
:108A1000D8D3D5B105EB4500072303EB40000B8805
:108A2000C0F3CF00834212D208806FF02900BDE866
:108A3000F08302EB040C9CF801C0BCF10A0FE4D0F7
:108A4000D5E77F1C022FF2D8D1E70020EFE70325FE
:108A500000231F4648462EE092F800C0BCF10D0FDF
:108A600026D0BCF10A0F23D016F80CC0BCF1400F81
:108A70000BD04FF000087F1C63F39F1CBFB2A5EB27
:108A800008056346042F03D012E04FF00108F2E717
:108A900000276DB14FEA134C00F801CB012D07D927
:108AA0004FEA132C00F801CB022D01D900F8013B4D
:108AB000641EA4B2521C002CCED1A0EB0900088089
:108AC000C3E7000076F102002DE9F04782466BB162
:108AD000DC000620B4FBF0F080B2A0EB800504EBD4
:108AE0004504022C05D0042C07D104E00020BDE889
:108AF000F087C01C00E0801C80B20C88401C8442BF
:108B000003D208806FF02900F1E70320B3FBF0F0F7
:108B100000EB40001FFA80F900245046DFF8B4C093
:108B200025E012F8016B12F8017B4FEA9608360136
:108B300006EB271612F8015B1CF8088006F03F06CA
:108B400000F8018B1CF8066000F8016BBE0006EB14
:108B5000A51606F03F0605F03F051CF8066000F874
:108B6000026B1CF80550E41C00F8015CA4B24C45F3
:108B7000D7D39C4227D212F8016B3D25641C9C423E
:108B800001D2127801E04FF000024FEA96031CF880
:108B9000033000F8013B4FEA061303EB221303F006
:108BA0003F031CF8033000F8013B08D24FF03C03B0
:108BB00003EA82021CF8022000F8012B01E000F811
:108BC000015B00F8015BA0EB0A020A804FF0000194
:108BD00001708BE736F102000C48002101600B4A5E
:108BE0000621083211600521121D1160074A082173
:108BF00088321160054A012194321160054A044906
:108C0000C2F80813092101607047000000350040D8
:108C1000020218060030004070B51500044609D065
:108C20000020286034B1206820B1A079800703D0EB
:108C3000072070BD0E2070BD084600F027FBC0B2B3
:108C4000142804D02179814203D8042070BD052066
:108C500070BDE288216800FB02102860002070BD12
:108C60002DE9FC410446002016880F46108094F838
:108C70002D101546804631B132462946384600F05F
:108C800019FB00287DD1A17801B32888001DB042CE
:108C900001D90C2018E0684679DFA8B92A88032199
:108CA000B95428881922401C80B228803A54288858
:108CB000401C80B22880C119BDF8000006F018F8E9
:108CC000298808442880404600285AD1E2780221A9
:108CD000CAB1288894F90320C31CB34201D90C20DF
:108CE0000FE0395428880123401C80B228803B546F
:108CF0002888401C80B228803A542888401C28804C
:108D00000020002875D16268CAB1288892F9002035
:108D1000C31CB34201D90C200FE0395428880A2122
:108D2000401C80B2288039542888401C80B228809A
:108D30003A542888401C28800020002859D12189D5
:108D400051B1CDE900563B460622022104F108004C
:108D500006F050F800284CD1218A51B1CDE90056D7
:108D60003B460722032104F1100006F043F80028D7
:108D70003FD1218B61B115223B46142104F118002B
:108D800000E036E0CDE9005606F034F8002830D196
:108D9000D4F820C0BCF1000F07D033462A4639462C
:108DA000604600F092FF002823D1D4F824C0BCF123
:108DB000000F07D033462A463946604601F040FF8F
:108DC000002816D194F82C1039B133462A4639467A
:108DD000204604F0D9FE00280BD12178002908D0C4
:108DE00002B033462A4639462046BDE8F04101F03C
:108DF00059BFBDE8FC8118B504460020ADF800005D
:108E000013466A46204600F006F8002802D0BDF856
:108E10000000204418BD70B588B182B100241588C7
:108E200003E0065D641C3444A4B2A54203D80619CD
:108E300076789E4201D08C42F3D38C4201D300203D
:108E400070BDA11C1180005D401E80B270BD80F815
:108E5000301070472DE9F0410D00044605D024B1D3
:108E600095F87A00012803D006E00E20BDE8F081D5
:108E700095F8980001282BD0D5F8A000042827D019
:108E8000D5F89C00042823D04FF00008464684F80B
:108E900002802C2205F17801201DFDF7B2FA84F83A
:108EA0003060D5F8A4006063D5F8A800A0634FF641
:108EB000FF70A4F8480204F50D70C4F84402C4F829
:108EC0004A62A4F84E6284F85062207810B104E03F
:108ED0000720CBE7FF2084F8540004F15501C4F8C3
:108EE000341294F82400EE261F27012832D0A4F86B
:108EF000387204F50E722846FFF7B2FE0028B5D18D
:108F000004F24311C4F83C1294F82400012824D040
:108F1000A4F8407204F5107205F13C00FFF7A0FEC2
:108F20000028A3D1012584F85150208BA4F84800D3
:108F300084F83C50C4F8408084F8508060696064D4
:108F400004F13C02002104F1540072DF00288DD1AD
:108F500025708BE7A4F83862CBE7A4F84062D9E724
:108F600010B50288102A1BD0112A20D0262A1DD124
:108F7000007A0C46012801D0022817D1A0780521DB
:108F8000401CB0FBF1F201FB1201204600F01EF87C
:108F900000280BD0A16B002908D0BDE8104008477D
:108FA000C27B012A02D18088A1F8480210BD0C467C
:108FB000002184F852128088B4F848128842F5D112
:108FC00020790028F2D10121DFE770472DE9F05F19
:108FD000044600788846B8B184F802800025C4F8B9
:108FE0004A52A4F84E5284F85052A079012610B18A
:108FF000B8F1010F0BD0E07990B1B8F1010F06D0B4
:10900000B8F1020F03D00BE00820BDE8F09F616BC0
:1090100021B184F851620820884701E084F8515258
:1090200004F24B2100200A5C0AB1304603E0401CE8
:109030000628F8D3002002274FF0030BB8F1010FE8
:1090400009D0B8F1020F0ED0B8F1030F10D0B8F16B
:10905000040F15D110E0A17929B194F8241011B9A9
:1090600008B130460DE0E17911B108B1384608E0A9
:10907000207A08B1584604E0607A08B1042000E084
:109080002846A070616B41B1032801D0042804D1A7
:10909000607910B194F85202A0B184F8535204F1EF
:1090A0003C0018218046FDF7C5F904F12C0084F836
:1090B0003C60814603F0AEF958B194F82C0084F876
:1090C000510008E084F8545284F85362072088471E
:1090D000E5E784F8516094F8240050B1484603F065
:1090E00099F920B194F8280084F8520001E084F83E
:1090F000526084F85050A27804F24A2104F50D79A8
:109100004FF0060A052A65D2DFE802F07D030F233F
:10911000430084F83160C4F84452C4E9101584F85F
:109120003C708020A4F8480056E084F8317094F830
:109130002420404612B10722027001E080F800B0FE
:10914000228A8281C4F844524160E168C8F808105C
:1091500042E06069C8F80800208BA8F80C0094F879
:109160002400454610B184F83CA001E084F83C603E
:10917000204605F009FE48B12F750421204600F075
:1091800003FF38BB052184F8311021E084F831B0A9
:109190001EE0E069C8F80800208CA8F80C0094F8DC
:1091A0002400454610B184F83CA001E084F83C60FE
:1091B000204605F0E9FD40B12F750421204600F05E
:1091C000E3FE38B984F831A002E0042084F83100CD
:1091D000C4F84492A07878B1424604F15400D4F81F
:1091E000441272DF00287FF410AF94F8301094F826
:1091F000540073DF0028F6D1616B11B194F831008F
:109200008847002001E784F83150F5E72DE9F04167
:10921000040012D001461C221948FDF7F2F8184844
:10922000184D0560206858B17ADF002806D1206803
:10923000016829604068686006E00E20BDE8F081A2
:1092400010487BDF0028F9D10D4D0024143D4FF666
:10925000FF76A5F1200704EB840005EB800007EB07
:10926000441120F8046B084A01600021FEF7BAFFA0
:1092700008B10320E2E7641CEDD00020DEE7000027
:10928000A4420020002C00201DED020010B5044671
:1092900000F006F808B1204610BD142010BD0000F3
:1092A000142801D3002070470146014801F01EBF79
:1092B000C44200207CB5054608880C46093090421F
:1092C00001D90C207CBD68466DDF0028FAD12188C9
:1092D0000820685420881B21401C80B2208029541B
:1092E0002088401C80B220802844DDF801100160F5
:1092F000BDF8051081802088801D80B220809DF8F7
:109300000010490800D0012129542088401C2080E9
:1093100000207CBDF8B5434B0446008800269D889C
:10932000212860D017DC10281FD0112845D0132821
:1093300062D01C2840D194F908203BA10020DA60BB
:10934000FDF702FC94F908103A4811F13C0F30DAAD
:109350000121C1772EE03B285FD0522852D05628F9
:109360002AD1A088132176DF51E033481E700660B1
:10937000A1889980314801F0CFFF08B1FEF726FFA0
:10938000284816306DDF2748A17B1030002241713C
:10939000617B0171217BC170E17A8170A17A41709A
:1093A000617A0170A088114688DFBDE8F84004F0BA
:1093B000B7BCC677A08889DFF8BD4FF6FF709880EC
:1093C0005E7000F061FE022805D1012004F086F8ED
:1093D000012004F083F800F0DDFBBDE8F8404FF217
:1093E0007F7000F0F5BB0096A08869468FDF0028EB
:1093F000E2D0FEF7EBFEF8BD00231A468521284691
:109400007FDF04E000231A4619462846B1DF002812
:10941000F1D0BDE8F840FEF7D9BEA088132176DF71
:10942000F5E70000E42A00200A525353493A202568
:1094300064000000782E0020B42A0020E4380020C8
:109440002DE9F04701883B4E40F2F3194FF6FF75C6
:1094500010291BD011293ED0122954D0502946D1B1
:10946000C188F289841D914241D1618902293ED18E
:109470008688304601F012F9050038D004F10C005E
:1094800000F090F9A8B3294630464EE0C17B8788AA
:10949000044601292BD1A846284601F0FFF8050013
:1094A00017D02F8000202872234843464A4601687F
:1094B000C5F80A104068C5F80E0004F1100105F166
:1094C0000A0001F05FF96872F08900280FD129467F
:1094D0002AE0042013E0808801F0E0F8040006D0C0
:1094E0006068FEF7FFFE08B104F026F92580BDE8AC
:1094F000F087FFE76868FEF7F5FE0028F7D0BDE8C3
:10950000F04704F019B987880646384601F0C6F8D6
:109510000400ECD02B464A4606F1080104F10A008B
:1095200001F030F9607221463846BDE8F04700F09E
:1095300015BC0000A4420020002C00202DE9F04FB3
:109540000646B0F804800088DFF8F0B097B0102825
:1095500009D0112847D01A286CD1307A0121B1EBFB
:10956000101F43D243E0354F083FB868C043169000
:10957000796816A801F0D2FD16990BA800F086FBB9
:109580002C220BA96846FCF73CFF0025EA460EE0BA
:109590000AEB45000024B0F8049007EB840049462C
:1095A000001D01F098FD641C1D2CF6D36D1C009865
:1095B000A842EDD84446B8F1140F05D317B00420E3
:1095C000BDE8F04FFEF702BE4146584601F099FD56
:1095D0002146381D01F095FDF07B01282AD017485F
:1095E0004146001D17E0414658461BE0002102227B
:1095F000B2EB101F01D2012400E000240F4D083D02
:1096000005F1100014350029414610D001F079FD14
:1096100034B14146284617B0BDE8F04F01F071BDA6
:109620004146284617B0BDE8F04F01F054BD01F0A7
:1096300052FDF5E717B0BDE8F08F0000C8420020EA
:1096400070B50400264892B00DF1200C6CC88CE86F
:109650006C002DC80CAE86E82D003ED0E1B3086842
:10966000A061214608A862DF002833D120788DF858
:10967000420044F6C640ADF84000A21C10A90120EB
:10968000A8DF002826D121460CA862DF002821D1BE
:1096900020216846FCF7CEFE4EF2E750ADF8000000
:1096A00020788DF80200F420ADF8040001208DF838
:1096B0000C009DF80D108DF8120041F018018DF886
:1096C0000D10ADF806008DF813006088221D694664
:1096D00000F0B4F812B070BDFFE70E20FAE700000A
:1096E00004F102007FB504000CD0A3F57F45FF3DD7
:1096F0000AD048B1207848B11088F42808D907204A
:1097000004B070BD0E20FBE70520F9E70820F7E75D
:1097100000200090019002900390A088ADF8000016
:10972000CDE9022101208DF8020069461846AEDF1E
:10973000E6E770B588B00446002925D0002C23D078
:1097400008462188102921D0502925D057291BD11E
:109750000546A188406906AAFFF75EFA002813D1E2
:10976000069E307870B118216846FCF763FE012030
:109770008DF800000195A088ADF808000396A9694E
:109780006846884700F0B2F908B070BD08B02146BD
:10979000BDE8704002F0A4BB08B02146BDE87040AF
:1097A00002F0D4BB007800F00100704702488168E5
:1097B000491C816070470000A82A002005494FF02D
:1097C000FF32082841F8202002D3084480F84820BE
:1097D000704700004C430020F0B506464FF0FF30C4
:1097E000002A02D04FF0000301E04FF0080302D03E
:1097F0004FF0080501E04FF00C050B4C04E054F865
:1098000023707F1C03D05B1CAB42F8D3F0BDA519BD
:1098100058B285F8300044F82310002AF6D1E11838
:1098200081F84860F0BD00004C4300200249084424
:1098300090F93000704700004C4300202DE9F043C0
:109840008146887891B090460C4600B901208DF889
:109850003E0020880025ADF83C000D95607C0DA9E8
:1098600004F0DAFA0DAEA07C711C04F0D5FAE07BAE
:1098700000289DF8360002D040F0080001E020F0FA
:1098800008008DF83600217C11B140F0100001E095
:1098900020F010008DF83600217B11B140F001005E
:1098A00001E020F001008DF83600217D09B1022190
:1098B00000E0012161F342008DF836001C2168466A
:1098C000FCF7B8FD607BC10601D4800617D50E9564
:1098D0000EAFE07C791C04F09FFA9DF838000597E4
:1098E00020F00F00401C20F0F00010308DF8380000
:1098F0009DF83A0020F00600801C8DF83A00607B4D
:109900008DF80000A07B8DF80100142107A8FCF75A
:1099100091FD0FA8CDE90706A088ADF82800A06842
:1099200020B1E088ADF82400A0680B90A06998B33E
:109930000C950088ADF80800A0690CAD0CA9408812
:10994000ADF80A00A069406804950190A069007B09
:1099500004F062FAA069691C407B04F05DFAA0691A
:10996000807A00289DF8320002D040F0080001E023
:1099700020F008008DF83200A169C97A11B140F0D9
:10998000100001E020F010008DF83200A169097A82
:1099900019B140F0010002E00DE020F001008DF867
:1099A0003200A169897B09B1022100E0012161F344
:1099B00042008DF83200E06900B10390434607AAE7
:1099C00069464846AADF11B0BDE8F0832DE9F041B1
:1099D0001F4A00251F4CD07F4FF2FF77A2F11C06D3
:1099E000012819D03046937F80684FF49671012B7F
:1099F00017D0D279002A29D100F0E4FA002825D026
:109A0000A26815A10020FDF79FF801F09FF93846E4
:109A1000BDE8F04100F0DCB8D577A26818A1B260CB
:109A2000F0E700F0CFFA38B1A068B060592002F03A
:109A300053FD1BA1A268E5E7E0683C2806D9592040
:109A4000E56002F049FD1DA1A268DBE7BDE8F081F9
:109A5000782E0020A82A00200A256420424C4520A8
:109A6000444953434F4E4E4543542053544154456B
:109A7000203320534543204F56455254494D45000D
:109A80000A256420466F72636520446973636F6EB4
:109A90006E65637420536F756E642858290000004A
:109AA0000A256420464F5243455F444953434F4E75
:109AB0004E5F534F554E4420320000000A2564206B
:109AC000464F5243455F444953434F4E4E5F534FB9
:109AD000554E44203A2031206D696E206F766572B4
:109AE000206166746572207461670000044908890A
:109AF00008B1401E08810349002081F8C402704764
:109B0000242B0020483B00203EB500248DF8004067
:109B10008DF8014002226946204600F0A3F9FCF7C7
:109B200019FF0028FBD1084814214480048080F8E4
:109B3000C34200F2AE20FCF77DFC044884714FF470
:109B4000006000F045F83EBD483B0020782E002024
:109B500070B5084C05000AD010342168002901D0E6
:109B60000868206005D0496828468847F5E708342A
:109B7000F3E770BD38430020054A012120B10128D8
:109B800005D19170FFF7E4BF51700020FAE77047EC
:109B90003843002004490020C871044804A18268A9
:109BA0000020FCF7D1BF0000782E0020A82A00205A
:109BB0000A256420424C455F4741505F4556545F3B
:109BC000444953434F4E4E45435445440000000022
:109BD00002498A8882438A8070470000A82A0020B0
:109BE0002DE9F05F26494868F0B3DFF898B00768C0
:109BF0008946DBF800408E68A01B20F07F458878FE
:109C0000ED1CB0B9DFF880804FF48030C8F8440311
:109C1000C8F804031120FCF7A3FE1120FCF7ABFEEB
:109C20004FF0010AC8F800A02F2001F0D3FF89F8F7
:109C300002A0BD4200D23D46124AA8193C3220F093
:109C40007F401060DBF800105B46091B21F07F416C
:109C5000001B20F07F40C91C81420FD9186810609A
:109C60002F2001F0B7FF00E004E0BDE8F05F112015
:109C7000FCF78CBEBDE8F05F03F076BCBDE8F09F5A
:109C8000182C0020041501400010014073B58CB061
:109C90000646002000900D9880B100246D462146B4
:109CA0000DA801F023FA30B1009805EB4000848044
:109CB0000098401C0090641C142CF0D32C226946A0
:109CC0003046FCF79EFB0EB070BD2DE9F0410D460D
:109CD00011880646881D1446984202D90C20BDE81A
:109CE000F0813088062814D34FF448674FF6FF738D
:109CF000B84201D998420CD17288062A09D3BA42D7
:109D000001D99A4205D1984205D09A4203D0904297
:109D100001D9072000E000200028E0D10520685488
:109D200020881221401C80B2208029542088401CA9
:109D300080B220804119308804F0DAFF218808447D
:109D400080B220804119708804F0D2FF2188084435
:109D500020800020C3E7FEF739BA000038B54A7A00
:109D60000F4B62B100220A725969002906D0012204
:109D70008DF80020ADF802006846884738BD0A7AA1
:109D800062B19B684C68024619462046FEF768FAA5
:109D90000028F3D0BDE8384003F0CEBC5B68F1E7A3
:109DA000A442002010B5FCF7C9FD20B1BDE8104069
:109DB0001E2001F0CCBC174A0021174C5088138894
:109DC000984208D115480078062804D0072808D101
:109DD00092F8C30228B1A170BDE810401E2001F026
:109DE000FDBCA078401CC0B2A0700A2802D00B288D
:109DF00004D006E01E2001F0AAFC02E01E2001F0C3
:109E0000C3FCA0781421B0FBF1F201FB1200A0709A
:109E100010BD0000483B0020A82A0020782E00201A
:109E200086B000220092ADF80010ADF80210019249
:109E30000492059204AA694690DF06B07047704705
:109E4000F8B50D4606490324060A0C704E7088705A
:109E50000093D31C2A462146014804F06DF8F8BD52
:109E60009C3F002030B40A4C0B4602212170010AAD
:109E70006170A0700321002003E01D5C6554401C4C
:109E8000491C9042F9D330BC014804F081B800006D
:109E90009C3F0020034901220A70487002210148BA
:109EA00004F076B89C3F00200E4A10B51178547823
:109EB0000023A14212D0491CC9B21170022900D15D
:109EC0001370084913780C3151F823100160906821
:109ED000084420F07F409060012010BD0360002006
:109EE00010BD0000182C00202DE9F843104D0F463E
:109EF00080461E4691466946286801F0C0F8040075
:109F000014D01C21FCF796FA01202071C4F814909B
:109F1000380BC4F80080C4E902606946286801F083
:109F2000CFF803F0C1FA0020BDE8F8830420FBE776
:109F300028F2020030B50446006887B00D468068FC
:109F400000281FD018216846FCF774FA0195A06814
:109F50000590207910B1012810D107E001208DF87B
:109F6000000020690290E068039005E002208DF86F
:109F70000000E06800030290606904902068816836
:109F80006846884707B030BD70B50D460446B0F846
:109F90003812D0F834020122FEF72DFF00B105700F
:109FA00004F13C0204F50D7104F1540072DF70BD40
:109FB00070474FF0FF3100203DDF002801D1B12173
:109FC0003CDF7047054A9268824200D2D243101AA1
:109FD000884201D90120704700207047A82A00203C
:109FE00006484A8883889A4207D10A88A2F52063E6
:109FF000773B02D18988C91EC1807047E42A0020BE
:10A0000010B50949094801F0B8F808B1FEF7DEF8C3
:10A01000F721064801F0A5F8002803D0BDE810405C
:10A02000FEF7D4B810BD0000E19F0200D038002038
:10A030002DE9F8431E460F468046ADF80020FCF798
:10A0400077FC00281ED1FCF779FC00281AD000F01C
:10A0500021F8054633466A4639464046FFF742FB3B
:10A060000446082806D0132C04D0052C02D008B1D1
:10A07000FEF7ACF81421284603F094F9002801D12A
:10A08000132CE7D0BDE8F8830148C0887047000072
:10A09000A82A00200148806870470000A82A0020F4
:10A0A00038B51248124C13A10068009003208DF8B7
:10A0B00001000020A268FCF747FD01F083FE30B9E3
:10A0C0000CA10020A268FCF73FFD01F045FE09A1AC
:10A0D0000020A268FCF738FD0B4A6946162001F003
:10A0E000D3FD0121162001F07DFD38BD40F00200B6
:10A0F000A82A00200A2564204445425547204D45A2
:10A10000535341474500000049DE020010B50A499B
:10A1100041600A4800F0FFFF58B901F0BDFC074953
:10A120001C238C22087404488C39001F006800F03E
:10A1300093FF002010BD00002CF202005C450020BF
:10A140000448034900220162034801F0FCB9000001
:10A1500038F20200A82A0020482C00202DE9F04FF8
:10A160006F4C8DB0207903F039FE03F009F86DA132
:10A170006846FDF74BFD684604F084FD70A1684613
:10A18000FDF744FD684604F07DFD74A376A279A135
:10A190006846FDF73BFD684604F074FD207805280D
:10A1A00003D0062803D0072803D076A102E078A1C7
:10A1B00000E07AA16846FDF729FD684604F062FDDB
:10A1C0007AA16846FDF722FD684604F05BFD207920
:10A1D000082803D0092803D00A2810D079A100E06C
:10A1E0007DA16846FDF712FD684604F04BFD6078DE
:10A1F00005284CD2DFE800F04B05454749007BA11C
:10A20000EFE77FA16846FDF701FD684604F03AFDDF
:10A2100002F042FC02467FA16846FDF7F7FC684663
:10A2200004F030FD02F03CFC02467EA16846FDF7DA
:10A23000EDFC684604F026FDE078A346C0F110006E
:10A24000C11700EB9170012101EBA00279A16846D2
:10A25000FDF7DCFC684604F015FD7AA16846FDF7C1
:10A26000D5FC6A467AA10020FCF76EFC684604F033
:10A2700009FD7848DFF8E081DFF8E0918788C5883C
:10A2800028E077A1BEE77BA1BCE77FA1BAE783A165
:10A29000B8E77E1B1E2E00D3212605F5006080B294
:10A2A000834B32466946FFF7CBFD01E0C9F80080D9
:10A2B000FCF750FB0028F9D10024EA4607E00AEB3E
:10A2C0000400641CC07804F0CBFCC9F80080A642EE
:10A2D000F5D83544AF42DCD869231B2275A1684606
:10A2E000FDF794FC684604F0CDFCC9F8008000201E
:10A2F0008DF824008DF82500022209A9FFF7B2FD90
:10A30000FCF728FB0028FBD15C469BF80300FDF717
:10A310005DF8207802F0CCF80DB0BDE8F08F0000B9
:10A32000782E002053686F704F6E41697220504F35
:10A330005320436F6E6E6563746F720A00000000F5
:10A340003D3D3D3D3D3D3D3D3D3D3D3D3D3D3D3D3D
:10A350003D3D3D3D3D3D3D3D0A0000004D617220CB
:10A360003130203230323000534F415F50435F3044
:10A3700030310000462F57205665723A2025732051
:10A3800025730A004D4F4445203A20504F530A0090
:10A390004D4F4445203A204341540A004D4F444517
:10A3A000203A204B45595041440A00004C414E4749
:10A3B000203A20B0A1B3AAB4D9B6F3B8B6B9D90A35
:10A3C0000000000054595045203A205052494E5444
:10A3D000455220410A00000054595045203A20506F
:10A3E00052494E54455220420A00000054595045EB
:10A3F000203A205052494E54455220430A00000052
:10A400004241554452415445203A2031393230308E
:10A410000A000000434152442043484B3A25730A46
:10A4200000000000544F54414C20414D543A2573D4
:10A430000A000000564F4C554D45203A2025640A2D
:10A4400000000000515220434F4445203A200000B4
:10A4500025730000483B00203546526E000601403F
:10A460004241554452415445203A2033383430302B
:10A470000A0000004241554452415445203A2035DB
:10A48000373630300A0000004241554452415445AD
:10A49000203A203131353230300A000042415544F3
:10A4A00052415445203A20393630300A000000002D
:10A4B000EDD302000A0A0A0A0A0A0A0A0A0A2563EE
:10A4C00025630000024900208870487008707047BA
:10A4D000412B00202DE9F0472F4FDFF8C0804FF0CF
:10A4E000000987F80090D8F80000FBF7AEFFC4B26F
:10A4F0002546012658F82600FBF7A7FFC0B2A84260
:10A5000000D90546A04200D20446761CF6B2152EAC
:10A51000F0D3224A0021543212F83100A84200D967
:10A520000546A04200D20446491CC9B20329F3D310
:10A530001A493D71091F7C71C1F800908121B81D35
:10A54000FBF778FF14486C219430FBF773FF682108
:10A550001348FBF76FFF02F0B3FA124A12A1002072
:10A56000FCF7F2FA0E4D002404EB840000EBC4006B
:10A57000431922460FA10020FCF7E6FA641CE4B25E
:10A58000082CF1D3074A0EA10020FCF7DDFABDE844
:10A59000F04702F0DDBA0000203E0020482B0020EA
:10A5A000343F0020F1F002000D0A53746172743AD6
:10A5B000202573000D0A205B25645D2025730000B3
:10A5C0000D0A456E643A202573000000124910B54B
:10A5D0000020088048808880C880042281F8C52235
:10A5E00081F8C402A1F80A0281F8C60281F8C30208
:10A5F0000A490122CA700871487188710849887730
:10A6000014210848FBF716FF06481421BDE8104046
:10A610001530FBF70FBF0000483B0020242B002023
:10A62000782E0020E13D002070B51A4E1A49002511
:10A6300035700D604D608D60CD604D614FF4C02070
:10A640008D6100F02BFC144C411C04F11C0418D04B
:10A65000010E2171010CE170010A6170207002F09D
:10A6600081FAE078FCF7B2FEA571E571A572E5729A
:10A670000021A5700122084603F02AFB6571B56030
:10A6800070BD1020E07065700520207008202071DA
:10A69000E5E70000A82A00205C2E0020084A0021DF
:10A6A00001EB810332F82330834204D101EB8100B6
:10A6B00002EB80007047491CF2D000207047000078
:10A6C0009042002070B50C464FF48876054631461E
:10A6D00001F0B6F850B13146284601F0B6F860797D
:10A6E000400703D5216809B1012088474FF48A76D5
:10A6F0003146284601F0A4F850B13146284601F011
:10A70000A4F86079000703D5216809B102208847C1
:10A710004FF48E763146284601F092F850B131461A
:10A72000284601F092F86079C00603D4216809B187
:10A73000002088474FF482763146284601F080F8A1
:10A7400000280CD03146284601F07FF80120207106
:10A750002168002903D0BDE870400320084770BD80
:10A760000248007A002800D0012070475C45002094
:10A77000034901200968002900D00020704700002B
:10A7800000E40140F0B58588AE18954200D82A460D
:10A79000C488AF1AE5189C4200D82346E31A4A88B9
:10A7A0000488A2420CD34088824209D88888B842E3
:10A7B00006D3B04204D8C888984201D3A84201D930
:10A7C0000020F0BD0120F0BDF7210180172141805C
:10A7D000002101714171FB2181711B21C171704701
:10A7E0002DE9F047394F4FF0000805464646DFF89F
:10A7F000E090D7F804A055E015B12C46ED6934E09F
:10A8000099F8001001EB4100491CC9B289F8001009
:10A8100009EBC00099F80230001D994201D189F876
:10A82000006001784468012912D0022903D003296D
:10A830003AD178680AE0204604F0F6F808B14FF003
:10A840000108267430E00674C069786050B3FAE7F6
:10A85000217C49BB81686160C168A1600169E160D8
:10A860004069A061F87800B166606068BA68194B09
:10A87000811A21F07F41994202D2A068084406E083
:10A88000101AA16820F07F40814202D9081A206086
:10A8900000E0266066600120A66020742046E66124
:10A8A00004F0A4F8002DA7D199F8001099F8010040
:10A8B0008142A1D1B8F1000F02D17968514502D08F
:10A8C0000120BDE8F0870020FBE70000182C0020E5
:10A8D000A8430020FFFF7F002DE9FE4F4FF40067E3
:10A8E0004FF4C4244020FFF7D5FA204600F0D6FAF2
:10A8F0000646DFF88C903546401C4FF0000A3AD0EF
:10A90000280A8DF800008DF80150062002226946C1
:10A91000FFF7A8FAFCF71EF80028FBD1DFF86480E7
:10A9200015F0030002D0C0F10400064400241AE030
:10A9300008EB840000F0B2FA010E8DF80310010C50
:10A940008DF80210010A8DF801108DF8000007EB58
:10A95000840080B204226946FFF784FAFBF7FAFF0D
:10A960000028FBD1641CB442E2D3A9F806A0A9F8E0
:10A970000450BDE8FE8FA9F804A0A9F806A0F8E7E6
:10A98000483B002004200600ACB000F019FAFDF7A7
:10A990003DFC08B1FDF71AFC954A01219548FDF7E9
:10A9A00021FC08B1FDF712FC0B210D2004F018F971
:10A9B000142311221321122000F07CFA00F04CFF26
:10A9C00008B1FDF703FC01F01BF808B1FDF7FEFB31
:10A9D000002569460120009500F05EFF08B1FDF7F3
:10A9E000F5FB684600F0A8FF08B1FDF7EFFB9DF806
:10A9F000080081A120F00F00401C20F0F000103072
:10AA00008DF80800092202A87CDF08B1FDF7DEFB03
:10AA100028200095ADF800000195ADF804504FF4E2
:10AA2000C8705024ADF80600ADF8024068467ADFE1
:10AA300008B1FDF7CBFBFFF7E3FA7248019001A9DB
:10AA4000714800F074FC08B1FDF7C0FB6F4800903E
:10AA500069466F48FEF7F4FD08B1FDF7B7FBAC217E
:10AA60006846FBF7E7FC02208DF800008DF80250E5
:10AA700006208DF803000120ADF84C0064498DF8E4
:10AA80007C0064481839299014915F4869460C305D
:10AA9000CDE92245FEF7DEF908B1FDF797FB5A48EC
:10AAA00001210C30FEF7D3F91C216846FBF7C2FCEC
:10AAB0004FF42030CDE900504FF470200290032075
:10AAC0008DF80C005448059054480690ADF80E508F
:10AAD0008DF810506846FEF799FB08B1FDF776FB3C
:10AAE000FFF72EFB434C04F1100007C88DE8070068
:10AAF00068464B4901F0A0F908B1FDF767FB4448EF
:10AB00001E3801F069F908B1FDF760FB01F086F924
:10AB100000224FF4A4712068FDF7A2FBFFF7D2FCDE
:10AB2000FFF7D8FCFFF752FDFFF7D6FEFFF77CFDDD
:10AB3000FDF708FD10B1FFF777FD17E039484178C0
:10AB40004FF4165005290FD2DFE801F00E03060975
:10AB50000C004FF4964007E04FF4164004E04FF429
:10AB6000614001E04FF4E13004F098F8FFF792FA09
:10AB70004FF0A046B7000546C6F808750024DFF878
:10AB8000A880DFF8A890FFF785FA401B32280FD97C
:10AB9000FFF780FA0546C9F80080D6F8040527EAD1
:10ABA0000001C6F8081500F08040C6F80C05641CCA
:10ABB000062CE8D3C6F80875FFF772FAFFF7CEFA4D
:10ABC000FCF7A8F8012002F089FCFDF7A9FA03F0D0
:10ABD000DBF8FEF701F816A10020FBF7B5FF4446AD
:10ABE0004D462C60002003F0F7F901F0E9FDF8E78D
:10ABF00079E9020058F0020053686F704F6E616986
:10AC00007200000081B80200E438002089BE020012
:10AC1000042B0020A5BE0200B9BE0200579D020011
:10AC2000C5EE0200782E00203546526E0006014027
:10AC30000D0A205374617274204170702E2E000032
:10AC400070B505460E46808814461188021D0A44D8
:10AC5000801C9A4201D8FE2801D90C2070BD401CEE
:10AC600070542088FF21401C80B2208031542088FD
:10AC7000401C80B220808119288804F039F821888E
:10AC8000084480B22080AA8842B1A96841B130440A
:10AC9000FBF7B7FB2088A98808442080002070BDFE
:10ACA000072070BDF8B50F46017814460546012906
:10ACB00001D1687830B12088821C9A4232D80129AB
:10ACC00002D006E00720F8BD69780144891C99424A
:10ACD00028D8181A801E86B2ADF800602188B81CEA
:10ACE000084469467DDF0028EDD12978022904D087
:10ACF0006878BDF80020904205D3BDF80000B0424E
:10AD000001D809200AE00820012905D16978B1425B
:10AD100002D8ADF8001001E0ADF80060BDF80010F9
:10AD2000FE2901D90C20F8BD2288491CB95421887C
:10AD3000491C89B2218078542088401C2080BDF8AD
:10AD40000010084420800020F8BD000010B5FBF77B
:10AD5000F5FD002811D0094C607800280DD13B2169
:10AD6000A08876DF38B1082805D0132803D0112831
:10AD700001D0FDF72BFA0120607010BDE42A0020FD
:10AD800010B50024024623464FF4C421034800F0C6
:10AD9000B3FB00B90124204610BD0000482C002060
:10ADA00010B50024024623464FF4C021034800F0AA
:10ADB000A3FB00B90124204610BD0000482C002050
:10ADC00010B51E2000F0A8FC042000F0A5FC1F20F8
:10ADD00000F0A2FC022000F09FFC032000F09CFC8D
:10ADE0000C2000F099FC0D2000F096FC0D2000F0E6
:10ADF000BCFC102000F090FC102000F0E1FC0021D1
:10AE0000162000F080FC0321152000F07CFC0021BE
:10AE1000072000F078FC1E2000F0D2FC042000F097
:10AE2000CFFC1F2000F0CCFC022000F0C9FC032066
:10AE300000F0C6FC0C2000F0C3FC172000F06CFCF6
:10AE4000182000F069FC192000F066FC172000F0C3
:10AE5000B7FC192000F089FC092000F05DFC0A20F5
:10AE600000F05AFC1A2000F057FC1F2000F054FCA0
:10AE70001B2000F051FC092000F077FCBDE81040D9
:10AE80000A2000F072BC0000034900B50860FFF71B
:10AE90006FFC0028FBD100BD04E50140044900B56A
:10AEA0000968024611B10020FFF7EEFF106800BDEF
:10AEB00004E501402DE9F0470F464FF04021012401
:10AEC0009846914682464C610A2000F0D5FA1B4E06
:10AED000002030600A2000F0CFFA00F035F8184D5D
:10AEE000310501EB88010320C5F81080C1F8000787
:10AEF000404600F06CFC68688760C0F80490C0F8B9
:10AF000000A00E4AE1072432116007213160EA688F
:10AF1000402111600B4AE02182F800141021121F19
:10AF2000C2F800118168002900DA00244068002876
:10AF300000DA00242046BDE8F0870000004500400C
:10AF4000D42B002004E000E04FF040200021C0F8A6
:10AF50000411C0F81011C0F81811C0F82011C0F881
:10AF60004C11704738B50C4600210091134601463C
:10AF70002246044800F05EFB08B1002038BD0120E5
:10AF800038BD0000482C00202DE9FE432A4D41F633
:10AF900064460024C8B1AC706E81284B0222694619
:10AFA0000020FEF74DFFFBF7D5FC0028FBD19DF8F4
:10AFB00003004FF6FF7101EA00209DF804100844D9
:10AFC0000004000CA8810DD001E0A88948B11B4BFA
:10AFD000012269466889FEF733FF194FDFF8648064
:10AFE00004E00120BDE8FE83C8F80070FBF7B2FC66
:10AFF0000028F9D19DF8030003F032FE6889401C57
:10B000006881A889401E80B2A8819DF803101B2981
:10B0100006D0AA780AB1692905D0AC7030B109E030
:10B020000121A970FAE7052804D2AC816E81AC70C9
:10B030000320D7E70220D5E7242B002035D50200D6
:10B040003546526E0006014010B5FBF72EF908B1E7
:10B05000002010BD112010BD10B531B1B2FBF3F4CA
:10B0600003FB14241CB1092010BD0E2010BD01608B
:10B070000021416081608281C381084610BD70B5A6
:10B080000D460446FBF7C6F8002802D02988206840
:10B09000084470BD10B50A8849888A4203D1FBF77D
:10B0A000FBF8012010BD002010BD70B50D46044610
:10B0B000FBF7D5F8002802D069882068084470BDE5
:10B0C00010B50A8849888A4203D1FBF7BFF80120EE
:10B0D00010BD002010BD01F01F0301229A40D24391
:10B0E000490900EB8100114600F018B84A0950F8F0
:10B0F000220001F01F0201219140084000D00120F0
:10B1000070470A4601F01F0301219940520900EBE4
:10B11000820000F00EB8012100F006B808B56A46BA
:10B12000FBF7F5F8009808BD08B56A46FBF7E2F8AA
:10B1300008BD08B56A46FBF7DDF8009808BDC208EF
:10B1400000F007030120895C98400840704710B563
:10B15000C20800F007008B5C0124844023438B5419
:10B1600010BD28B1A1F11702E12A03D307207047CF
:10B170000E20704701800020704770B505000FD089
:10B18000F720296128806880FB202871002405EBC6
:10B19000C400801DFFF718FB641CF8D0002070BDB0
:10B1A0000E2070BD2DE9F047B0F804A08EB00C461B
:10B1B0005FEA0A0957D10188564E01270025242944
:10B1C0007BD006DC102909D0112929D0232926D1CA
:10B1D00099E03A2928D0552921D147E021792173D6
:10B1E000C07BA61D012802D0022804D101E02088DE
:10B1F00000E06088308031887088814208D94846F4
:10B20000A5DF10B1112802D002E0777100E037719C
:10B21000B179F07981426BD94846FEF701FE67E0CB
:10B22000A01DFFF7D1FA63E02246408934F8061FDB
:10B23000814200D808466080172800D2172060801D
:10B24000106970B1607960B1D6E90001CDE9000103
:10B25000ADF802906088ADF80400136969461046A5
:10B260009847657125710EB0BDE8F087C08804F17C
:10B270000608172800D21720B8F80010814200D81D
:10B280000846A8F8020088F804502846B8F80010CC
:10B29000B5DF98F8050058BB206948B3D6E902012C
:10B2A000CDE90001ADF80290B8F80200ADF8040055
:10B2B0002046694622691AE0FFE7011D2C226846F4
:10B2C000FBF79FF8BDF80000BDF8042004EBC001B7
:10B2D0004A73226962B1D6E90423CDE90B23ADF8A4
:10B2E0002E00487B8DF83000226920460BA990473C
:10B2F000A07A0028B7D0E1885046A5DF0028B2D157
:10B30000A572E772AFE7017A207B884284D20146BA
:10B3100082E70000F8F1020020B10278DE2A03D0B3
:10B32000082070470E20704741800020704760B1B0
:10B3300059B10278DE2A0AD009684160DE21017025
:10B340004FF6FF714180002070470E2070470820A3
:10B3500070477FB5054600294DD0002D4BD00878A9
:10B360000C46DE2847D1A8886188884202D1204651
:10B3700003F016FD2888012825D002283BD011288B
:10B380003AD0512837D135F8040F6188884232D13C
:10B39000A878A91C02282ED1087A042803D00628F0
:10B3A00001D0052827D10020009002228DF800202E
:10B3B00001904FF4C07202900390ADF80420097A16
:10B3C00005290FD010E0297A2046012913D1A98838
:10B3D000428891420FD10121017204B0BDE8704052
:10B3E00003F0DEBCADF8040028886946B0DF002811
:10B3F00001D0616888477FBDA88861888842FAD1FA
:10B400004FF6FF7060807FBD00F18040006800282B
:10B4100000D00120704708B500F180400021016094
:10B420000068009008BD000070B5040007D0044D0E
:10B430004FF47A46691C30468847641EFAD170BDC5
:10B4400050F0020070B5040006D04FF47A7528461B
:10B4500000F0B0FB641EFAD170BD000070B50400AE
:10B4600007D0044D4FF47A46691C30468847641E65
:10B47000FAD170BDC0F0020070B5040006D04FF4E0
:10B480007A75284600F09EFB641EFAD170BD00005C
:10B4900070B50B4C207808B185250FE00020A06026
:10B4A00060602061E060074800F066FB054600F040
:10B4B000F3FA08B900F04AFB01202070284670BD5D
:10B4C00038430020799B020038B500258DF80050E4
:10B4D0006846FCF717FF074CE068401EE060E06834
:10B4E00010B900F059FBA5709DF80000FCF72CFF87
:10B4F00038BD0000384300202DE9F0411F461546B5
:10B5000004000E4616D02068B8B1C5B16068026864
:10B51000501E304215D16A432046FCF7F5FD80B13C
:10B5200020683B462A46D0F810C031462046BDE888
:10B53000F04160470E20BDE8F0810820FBE70920BC
:10B54000F9E71020F7E720B119B101600B68114647
:10B5500018470E2070470000044801214174007A0A
:10B5600008B1002070470120704700005C450020B2
:10B57000012801D0032808D10449002201284A7477
:10B5800000D00020087401F03DBF70475C450020EA
:10B5900070B50146022801D0032946D1234C207AF8
:10B5A000002842D0012834D0022832D1204800237C
:10B5B0000229006802D003292BD119E0E360027947
:10B5C00012B1012A1BD10CE0D0E90565721B4FF4C2
:10B5D0008056B24200D332462A44826104E00122FE
:10B5E0000EE00269521C02614569AA42F7D006E0EA
:10B5F000E268521CE260082A01D9E360EFE700220A
:10B600003AB1237202290AD00D21FEF793FC01F012
:10B61000EFFE607C28B1BDE8704000F043BA002125
:10B62000F3E7BDE8704001F0EDBE70BD5C45002061
:10B630002C2C00202DE9F8431D46089F164688460D
:10B6400004000DD066B1206860B135B16068406813
:10B65000B5FBF0F100FB115030B10920BDE8F883D3
:10B660000E20FBE70820F9E74046FCF747FD90B1C4
:10B670003046FCF743FD70B12A4641462046FCF7B0
:10B6800043FD40B1009720682B463246C7684146CB
:10B690002046B847E2E71020E0E770B541EA4201F2
:10B6A000DDE904454FF0A04641EA830141EA042167
:10B6B00006EB800041EA0541C0F8001770BD70B587
:10B6C00041EA4201DDE904454FF0A04641EA830129
:10B6D00041EA042106EB800041EA0541C0F8001769
:10B6E00070BD70B541EA4201DDE904454FF0A04666
:10B6F00041EA830141EA042106EB800041EA054169
:10B70000C0F8001770BD1CB500220B460092114610
:10B710000192FFF7C2FF1CBD1CB5002100910B4632
:10B72000012201911146FFF7B8FF1CBD4FF0A04266
:10B7300002EB8000D0F8002722F44032C0F8002746
:10B74000D0F8002742EA0141C0F8001770474FF0D7
:10B75000A04201218140C2F80C1570474FF0A04271
:10B7600001218140C2F80C1570474FF0A042012121
:10B770008140C2F80C1570474FF0A041D1F8101568
:10B78000C14001F0010070474FF0A042012181400B
:10B79000C2F8081570474FF0A04201218140C2F85D
:10B7A000081570474FF0A04201218140C2F80815EA
:10B7B00070474FF0A04201218140C2F80815704740
:10B7C0004FF0A04201218140C2F8081570474FF0A8
:10B7D000A04201218140C2F8081570474FF0A043F4
:10B7E000D3F804150122824022EA0100C3F80805BB
:10B7F0000A40C3F80C25704718B5074B44181B685E
:10B8000000936B4605E053F82010D1F81015401C4A
:10B8100002C28442F7D818BD10F20200034908B5ED
:10B820000844002101600068009008BD00600040ED
:10B8300002494058012800D00020704700600040B5
:10B840004058002800D00120704708B5002242501F
:10B850004058009008BD0000064910B5002048700F
:10B86000091D0860BFF35F8F0349044800F046F9E3
:10B87000002010BD342C002070F202007045002022
:10B88000FCF7A4BC20B1034909680160002070479F
:10B890000E207047F4F20200FEB506460C4608463C
:10B8A000FFF7F0FF002845D10025009501950127FD
:10B8B00006208DF80060ADF8040002958DF8027046
:10B8C00069462020226869DF00958DF801708DF8A7
:10B8D0000250019502958DF8035069464020226878
:10B8E00069DF00958DF80060F720ADF80200019542
:10B8F000029569462320226869DF009502208DF8B1
:10B9000000000195029569460120226869DF4FF425
:10B91000B0600090019502956946A120226869DF18
:10B920000095019502958DF800506946A020226887
:10B9300069DF0020FEBD000060DF002802D1024A5E
:10B9400001211170704700003F2C002030B51548D0
:10B95000ADF5017D0078002820D04FF4FA74ADF8E1
:10B96000004280A9684661DF38B1052816D00DF580
:10B97000017DBDE83040FCF729BC6D460A497DA831
:10B9800000F0BCF806E0D0E90021284690477DA8E9
:10B9900000F0CBF87F980028E1D0F4E70DF5017DA9
:10B9A00030BD00003F2C0020F8F20200F8B5134D26
:10B9B0002878C0B10120A87001F01CFE112814D015
:10B9C000022001F02FFE00248DF800406846FCF7AD
:10B9D00099FC11DF06462C709DF80000FCF7B4FCC2
:10B9E0002EB13046F8BD0820F8BD0020F8BDAC707F
:10B9F00002F052FA032001F015FEF6E73C2C00207D
:10BA00007CB5194E307808B108207CBD0120B0709B
:10BA1000002001F0EFFD112819D0002001F002FEF6
:10BA200012480025006801908DF800506846FCF728
:10BA300069FC0F4901A810DF04000AD00020307013
:10BA40009DF80000FCF780FC2CB120467CBD002056
:10BA50007CBD0120F3E7B570757002F03DFA01205E
:10BA600001F0E0FDF3E700003C2C00208CF2020026
:10BA7000558102000EB50749684600F03FF805E021
:10BA8000D0E900108847684600F04FF80298002877
:10BA9000F6D10EBDA8F20200014800787047000000
:10BAA0003C2C00200548817819B1007818B1FFF7C7
:10BAB0007DBF08207047FFF7A3BF00003C2C00208B
:10BAC0001FB503A84BDF30B1052814D004B0BDE882
:10BAD0001040FCF77BBB0849684600F00FF806E011
