:020000040002F8
:10600000386A0020C1630200C9630200CB6302004A
:10601000CD630200CF630200D163020000000000E4
:10602000000000000000000000000000D363020038
:10603000D563020000000000D7630200D9630200AC
:1060400055690200DB63020059780200DB6302003D
:106050006D6C0200DB63020031670200016A02001E
:10606000DB63020041780200DB630200DB630200B5
:10607000DB630200DB630200DB630200DB63020020
:106080008D780200DD690200DB630200DB63020041
:106090009D6C0200DB630200A16C0200DB63020066
:1060A000DB630200DB630200DB630200DB630200F0
:1060B000AD690200DB630200000000000000000088
:1060C000DB630200BD690200CD690200DB630200F0
:1060D000DB630200DB630200DB6302000000000000
:1060E00000000000000000000000000000000000B0
:1060F00000000000000000000000000000000000A0
:10610000000000000000000000000000000000008F
:10611000000000000000000000000000000000007F
:10612000000000000000000000000000000000006F
:10613000000000000000000000000000000000005F
:10614000000000000000000000000000000000004F
:10615000000000000000000000000000000000003F
:10616000000000000000000000000000000000002F
:10617000000000000000000000000000000000001F
:10618000000000000000000000000000000000000F
:1061900000000000000000000000000000000000FF
:1061A00000000000000000000000000000000000EF
:1061B00000000000000000000000000000000000DF
:1061C00000000000000000000000000000000000CF
:1061D00000000000000000000000000000000000BF
:1061E00000000000000000000000000000000000AF
:1061F000000000000000000000000000000000009F
:10620000DFF80CD000F0E6F900480047DDA80200F6
:10621000386A002030B450E8012F93B2C489234477
:106220008489A34228BF1B1B0489A34202BFBFF37A
:106230002F8F002007E0C3EA020340E80134002C5E
:10624000E9D14FF001000A6030BC704750E8012FDF
:10625000C2EA024240E801210029F7D1704730B478
:1062600050E8022F1FFAA2F3C488A34202BFBFF373
:106270002F8F00200DE0C48923448489A34228BFC6
:106280001B1BC2EA034340E80234002CE8D14FF064
:1062900001000A6030BC704750E8022FC2EA224277
:1062A00040E802210029F7D17047034653E8022F46
:1062B000D988B2EB324F4FF0000017BF92B241EADB
:1062C000014142EA014104E05A68B2EB324F08BF93
:1062D000012043E80212002AE8D1704730B4044696
:1062E00054E8000F0D4644E80053002BF8D1156028
:1062F00030BC704730B4044654E8000F40EA010552
:1063000044E80053002BF7D1156030BC704730B41F
:10631000044654E8000F00EA010544E80053002B4E
:10632000F7D1156030BC704730B4044654E8000F14
:1063300080EA010544E80053002BF7D1156030BC1A
:10634000704730B4044654E8000F00EB010544E800
:106350000053002BF7D1156030BC704730B40446B1
:1063600054E8000FA0EB010544E80053002BF7D1DF
:10637000156030BC704770B404464FF0000054E81C
:10638000006F0D68AE4207BF44E80023012044E8D7
:1063900000630E60002B1CBF0020F0E770BC70474C
:1063A00030B4044654E8000F88422CBF451A054615
:1063B00044E80053002BF5D1156030BC7047000055
:1063C0000648804706480047FEE7FEE7FEE7FEE78F
:1063D000FEE7FEE7FEE7FEE7FEE7FEE731750200B7
:1063E00001620200202A04DB203A00FA02F10020B8
:1063F00070479140C2F1200320FA03F31943904003
:10640000704740EA01039B0703D009E008C9121F47
:1064100008C0042AFAD203E011F8013B00F8013B5E
:10642000521EF9D27047D2B201E000F8012B491E8A
:10643000FBD270470022F6E710B513460A46044621
:106440001946FFF7F0FF204610BD421C10F8011B53
:106450000029FBD1801A704710B5002200E0521CC1
:10646000835C8C5CA34201D1002BF8D1D8B2E1B29D
:10647000401A10BD034611F8012B00F8012B002A29
:10648000F9D11846704730B505460020034600E0B4
:106490005B1C934205D2EC5CC85C201A01D1002C35
:1064A000F6D130BD70B50F4D00B92868002412E058
:1064B0000A4602E09E4203D0521C1378002BF9D109
:1064C000DAB2224305D02BB124B1002100F8011B20
:1064D00004E00446401C0678002EE9D128602046DE
:1064E00070BD00002C2C002070B5064601F06AFB40
:1064F000046805460A220021304600F033F82C607B
:1065000070BD2DE9F05F0546002092469B46884607
:106510000646814640241BE028464146474622461F
:1065200000F06AF853465A46C01A914110D31146FA
:1065300018462246FFF756FF2D1A67EB01084F4613
:10654000224601200021FFF74DFF17EB00094E41C5
:10655000201EA4F10104DFDC484631462A464346AA
:10656000BDE8F09F2DE9F04791460F46804604466E
:10657000002614F8015B2DB100F04EF80068405D74
:10658000C007F6D12B2D02D02D2D18D0641E4A46FF
:106590003946204600F044F827B13968A14201D1BC
:1065A000C7F8008071054FF002040BD54042002867
:1065B00003DD01F007FB0460A007BDE8F08746F4A7
:1065C0008066E4E70028F8DA01F0FCFA04606FF076
:1065D0000040F2E7064C074D06E0E06840F001039A
:1065E00094E8070098471034AC42F6D3FFF70CFE4E
:1065F00094F20200B4F20200202A04DB203A21FACD
:1066000002F00021704721FA02F3D040C2F12002CB
:10661000914008431946704700487047C4F1020092
:106620002DE9F05F82460078002715468B460AF177
:106630000104B946302801D09DB113E014F8010BD4
:106640000127782803D0582801D045B10AE00DB1C0
:10665000102D07D10027102514F8010B02E00825A2
:1066600000E00A250026B0460EE005FB080005FB09
:1066700006F1012701EB10461FFA80F8B6F5803FBE
:1066800000D3B94614F8010B294600F018F8002889
:10669000EBDABBF1000F05D00FB1641E00E05446E9
:1066A000CBF80040B9F1000F06D001F08BFA0221BF
:1066B0000160C81EBDE8F09F48EA0640FAE73A28A4
:1066C00000D2303820F02002412A01D3A2F1370055
:1066D000884201D34FF0FF30704770B58C1810F826
:1066E000015B15F0070301D110F8013B2A1106D117
:1066F00010F8012B03E010F8016B01F8016B5B1E31
:10670000F9D12B0705D40023521E0DD401F8013B0B
:10671000FAE710F8013BCB1A921C03E013F8015B77
:1067200001F8015B521EF9D5A142D8D3002070BDFB
:106730002DE9FF5F0025DFF88081A9464FF48077BF
:1067400001242E460095384605F004F838B1D8F8F3
:106750000403204203D0384604F0F2FF25433F1DD6
:106760006400761CBFB2082EEDD34FF4BE742046F1
:1067700004F0F0FF48B1204604F0E2FF45F0004588
:106780006A460121002004F0C9FF4C4E15F0FF0FAE
:1067900015D0012700242F420DD008EB8401D1F839
:1067A0001005D1F81015C0F3042056F82420C1F3C9
:1067B000014102B190477F00641C082CEBD3002DEF
:1067C00076DA0020411E02AACDF8049042F820108B
:1067D0009246401CFAD0B34600252C460BEB040031
:1067E0005F4610F8506F90F9000026F0C009401C79
:1067F00037D002A9484604F03AFC00B34FEA961895
:10680000484602F0DBFF57F8207017B9B8F1030FC4
:1068100027D1B8F1030F03D101A9484604F02FFC9A
:106820004FF0A04101EB8900D0F800076946C0F3A2
:106830000146484604F01BFC10B1022E02D010E0C5
:10684000032E0ED1B8F1030F07D1022E32D0022150
:10685000484604F003FF6D1CEDB217B141464846AF
:10686000B847641C042CB9D3002D21D0012403AAFD
:106870002146002004F052FF0020694603AA51F887
:10688000206052F82030B34203D1401CF7D0002CD6
:106890000ED1002001AC534652F8206041F8206030
:1068A00054F8206043F82060401CF5D0002D93D1AF
:1068B000BDE8FF9F0321CBE7006000403443002088
:1068C0000148007870470000D02A002004488088E2
:1068D000A0F57F41FF3901D00120704700207047AB
:1068E000D02A00200148007870470000C02B00200B
:1068F00000F01F02012191404009800000F1E020DA
:10690000C0F88012704700F01F0201219140400939
:10691000800000F1E020C0F80011704700F01F0275
:10692000012191404009800000F1E020C0F80012F0
:1069300070474907090E002806DA00F00F0000F141
:10694000E02080F8141D704700F1E02080F800146A
:106950007047000070B54FF48076304604F0ECFCD0
:10696000114CB50560B1304604F0EDFC0120C5F8CE
:106970000803607920B901206071216800208847F0
:106980004FF48276304604F0D7FC00280AD0304617
:1069900004F0D9FC0220C5F808032168BDE8704066
:1069A0000120084770BD0000F42B00200149024877
:1069B00003F032BE6445002000C001400149024896
:1069C00003F02ABE6C450020001002400149024835
:1069D00003F022BE74450020002002400748002139
:1069E000C0F84011C0F84411C0F84811C0F84C116B
:1069F000C0F80011C0F8041107F072BF0010014088
:106A00000E48D0F804310E4A00211BB1C0F8041121
:106A100001235370D0F808310BB1C0F80811D0F839
:106A20000C31002B09D0C0F80C111078401E10F06A
:106A3000FF00107001D001F021BB704700700040D2
:106A4000A82B00202DE9F04107460B4815460E46BD
:106A5000007808B900F02CFFEFF31184202080F3B8
:106A600011882A463146384600F008F8E1B281F331
:106A70001188BDE8F08100007C45002070B50E460D
:106A8000144900EB400001EBC0051446E86A1835D4
:106A900020B101280FD0022805D113E0284600F0CC
:106AA0003BFFA04201D2002411E022463146284695
:106AB00001F052F80BE0284600F02EFFA042F4D27D
:106AC0000446F2E73146284601F019F8044620460C
:106AD00070BD00007C4500200FB408B504A90091EA
:106AE0006A46039900F003F801B05DF814FB2DE944
:106AF000F04198B0804607A8029040200026CDE9DA
:106B00000306CDE9056815460C4614F8011B00295B
:106B10006FD0252908D002A800F0D2FF05980028E0
:106B2000F3DA18B0BDE8F081002001222178232992
:106B30001ED02B2919D02D2902D0302908D102E0EE
:106B400040F0010001E040F00200641C002AEDD199
:106B500000222178A1F130030A2B0CD202EB820231
:106B600001EB4202303A641CF3E740F00400ECE72A
:106B700040F00800E9E70023CFB22E2F0BD114F824
:106B8000011FA1F130070A2F05D203EB830301EBAC
:106B90004303303BF3E76C290DD068290BD07029F3
:106BA0004AD00BDC252914D058292BD063290CD0CE
:106BB000642911D112E014F8011FECE773292CD0DD
:106BC000752917D0782907D11CE02868011D296094
:106BD000017802A800F074FF641C9FE729680F1D6C
:106BE0002F600968CDE900200A2202A800F09FFE6C
:106BF000F2E72BE029680F1D2F600968CDE900201E
:106C00000A2206E029680F1D2F600968CDE90020DF
:106C1000102202A800F0EEFEDEE72868011D2960C0
:106C2000076817F8011B0029D6D002A800F048FF1A
:106C300005980028F5DACFE72868011D296001686A
:106C40000820CDE9000603461022E2E70598002857
:106C50007FF767AF049820B1024607A94046FFF7C7
:106C6000F1FEDDE90410084405905AE710B54FF035
:106C70004021D1F8180100280DD00020C1F81801DA
:106C8000054C2070206904F033FD6069002802D0B3
:106C9000BDE81040004710BDC02B002007F078BDB4
:106CA00004F07ABE2DE9F0414FF00108DC27E3261D
:106CB0000525022004F007FD032004F004FD4046F2
:106CC00004F00AFF404604F007FF022004F0DEFC57
:106CD000404604F001FF032004F0D8FC404604F0D5
:106CE000FBFE002407FA04F000064FF0020002D574
:106CF00004F0E9FC01E004F0C9FC404604F0ECFEBD
:106D0000032004F0E0FC404604F0E6FE032004F01B
:106D1000BDFC404604F0E0FE641CE4B2082CE1D364
:106D2000022004F0B3FC404604F0D6FE032004F039
:106D3000CAFC404604F0D0FE032004F0A7FC404605
:106D400004F0CAFE022004F0BEFC404604F0C4FE7B
:106D5000002406FA04F000064FF0020002D504F009
:106D6000B2FC01E004F092FC404604F0B5FE0320C2
:106D700004F0A9FC404604F0AFFE032004F086FCBA
:106D8000404604F0A9FE641CE4B2082CE1D30220C2
:106D900004F07CFC404604F09FFE032004F093FCCA
:106DA000404604F099FE032004F070FC404604F0D5
:106DB00093FE022004F087FC404604F08DFE002480
:106DC00005FA04F000064FF0020002D504F07BFC47
:106DD00001E004F05BFC404604F07EFE032004F07A
:106DE00072FC404604F078FE032004F04FFC40465D
:106DF00004F072FE641CE4B2082CE1D3022004F01B
:106E000045FC404604F068FE032004F05CFC40466C
:106E100004F062FE032004F039FC404604F05CFEFE
:106E2000022004F050FC404604F056FE404604F0B8
:106E300053FE032004F047FC404604F04DFE0220C0
:106E400004F041FC404604F047FEDC27E2266025C2
:106E5000022004F038FC032004F035FC404604F026
:106E60003BFE404604F038FE022004F00FFC404692
:106E700004F032FE032004F009FC404604F02CFE2E
:106E8000002407FA04F000064FF0020002D504F0D7
:106E90001AFC01E004F0FAFB404604F01DFE03205A
:106EA00004F011FC404604F017FE032004F0EEFB52
:106EB000404604F011FE641CE4B2082CE1D3022029
:106EC00004F0E4FB404604F007FE032004F0FBFB63
:106ED000404604F001FE032004F0D8FB404604F0D5
:106EE000FBFD022004F0EFFB404604F0F5FD00241A
:106EF00006FA04F000064FF0020002D504F0E3FBAE
:106F000001E004F0C3FB404604F0E6FD032004F07A
:106F1000DAFB404604F0E0FD032004F0B7FB4046F6
:106F200004F0DAFD641CE4B2082CE1D3022004F082
:106F3000ADFB404604F0D0FD032004F0C4FB404606
:106F400004F0CAFD032004F0A1FB404604F0C4FD98
:106F5000022004F0B8FB404604F0BEFD002405FA10
:106F600004F000064FF0020002D504F0ACFB01E093
:106F700004F08CFB404604F0AFFD032004F0A3FBBB
:106F8000404604F0A9FD032004F080FB404604F0D5
:106F9000A3FD641CE4B2082CE1D3022004F076FBCC
:106FA000404604F099FD032004F08DFB404604F0B8
:106FB00093FD032004F06AFB404604F08DFD02209F
:106FC00004F081FB404604F087FD404604F084FD58
:106FD000032004F078FB404604F07EFD022004F01C
:106FE00072FB404604F078FD404604F075FD4046D3
:106FF000BDE8F04104F070BD2DE9F04105464FF0C9
:107000000108DC27E426022004F05DFB032004F0E5
:107010005AFB404604F060FD404604F05DFD02204E
:1070200004F034FB404604F057FD032004F02EFB2F
:10703000404604F051FD002407FA04F000064FF02A
:10704000020002D504F03FFB01E004F01FFB4046C4
:1070500004F042FD032004F036FB404604F03CFD02
:10706000032004F013FB404604F036FD641CE4B238
:10707000082CE1D3022004F009FB404604F02CFD6B
:10708000032004F020FB404604F026FD032004F01A
:10709000FDFA404604F020FD022004F014FB4046B7
:1070A00004F01AFD002406FA04F000064FF0020076
:1070B00002D504F008FB01E004F0E8FA404604F0D1
:1070C0000BFD032004F0FFFA404604F005FD032009
:1070D00004F0DCFA404604F0FFFC641CE4B2082C27
:1070E000E1D3022004F0D2FA404604F0F5FC03207C
:1070F00004F0E9FA404604F0EFFC032004F0C6FA7D
:10710000404604F0E9FC022004F0DDFA404604F0B9
:10711000E3FC0024022004F0B9FA404604F0DCFC51
:10712000032004F0D0FA404604F0D6FC032004F01B
:10713000ADFA404604F0D0FC641CE4B2082CE9D35C
:10714000022004F0A3FA404604F0C6FC032004F039
:10715000BAFA404604F0C0FC032004F097FA404617
:1071600004F0BAFC022004F0AEFA404604F0B4FC8D
:10717000404604F0B1FC032004F0A5FA404604F0B8
:10718000ABFC022004F09FFA404604F0A5FC404608
:1071900004F0A2FC404604F09FFC6F496D48086073
:1071A000DC27E026022004F08EFA032004F08BFA9C
:1071B000404604F091FC404604F08EFC022004F0AE
:1071C00065FA404604F088FC032004F05FFA40466C
:1071D00004F082FC002407FA04F000064FF00200DD
:1071E00002D504F070FA01E004F050FA404604F0D1
:1071F00073FC032004F067FA404604F06DFC0320A2
:1072000004F044FA404604F067FC641CE4B2082C25
:10721000E1D3022004F03AFA404604F05DFC03207A
:1072200004F051FA404604F057FC032004F02EFA13
:10723000404604F051FC022004F045FA404604F0B8
:107240004BFC002406FA04F000064FF0020002D5C1
:1072500004F039FA01E004F019FA404604F03CFC6D
:10726000032004F030FA404604F036FC032004F01A
:107270000DFA404604F030FC641CE4B2082CE1D363
:10728000022004F003FA404604F026FC032004F038
:107290001AFA404604F020FC032004F0F7F94046B7
:1072A00004F01AFC022004F00EFA404604F014FC2C
:1072B000002405FA04F000064FF0020002D504F0A5
:1072C00002FA01E004F0E2F9404604F005FC032074
:1072D00004F0F9F9404604F0FFFB032004F0D6F96E
:1072E000404604F0F9FB641CE4B2082CE1D3022010
:1072F00004F0CCF9404604F0EFFB032004F0E3F97E
:10730000404604F0E9FB032004F0C0F9404604F0D5
:10731000E3FB022004F0D7F9404604F0DDFB4046D1
:1073200004F0DAFB032004F0CEF9404604F0D4FB6D
:10733000022004F0C8F9404604F0CEFB404604F0B9
:10734000CBFB404604F0C8FBBDE8F041102004F040
:1073500011B800003546526E000601402DE9F0419B
:10736000DC27E1264FF001080F2800D90F2008285C
:107370000CD003DC30B1042804D105E00C2807D080
:107380000F2807D0072506E0112504E01B2502E0A1
:10739000252500E02F25FFF785FC022004F093F956
:1073A000032004F090F9404604F096FB022004F01C
:1073B0006DF9404604F090FB032004F067F9404665
:1073C00004F08AFB002407FA04F000064FF00200E4
:1073D00002D504F078F901E004F058F9404604F0D1
:1073E0007BFB032004F06FF9404604F075FB03209B
:1073F00004F04CF9404604F06FFB641CE4B2082C26
:10740000E1D3022004F042F9404604F065FB03207A
:1074100004F059F9404604F05FFB032004F036F90C
:10742000404604F059FB022004F04DF9404604F0B8
:1074300053FB002406FA04F000064FF0020002D5C8
:1074400004F041F901E004F021F9404604F044FB66
:10745000032004F038F9404604F03EFB032004F01A
:1074600015F9404604F038FB641CE4B2082CE1D363
:10747000022004F00BF9404604F02EFB032004F038
:1074800022F9404604F028FB032004F0FFF84046B0
:1074900004F022FB022004F016F9404604F01CFB25
:1074A000002405FA04F000064FF0020002D504F0B3
:1074B0000AF901E004F0EAF8404604F00DFB03206D
:1074C00004F001F9404604F007FB032004F0DEF865
:1074D000404604F001FB641CE4B2082CE1D3022016
:1074E00004F0D4F8404604F0F7FA032004F0EBF877
:1074F000404604F0F1FA032004F0C8F8404604F0D6
:10750000EBFA022004F0DFF8404604F0E5FA4046CA
:1075100004F0E2FA032004F0D6F8404604F0DCFA66
:10752000022004F0D0F84046BDE8F04104F0D4BA9F
:10753000F0B5B248B14A01260078121D0023111D92
:10754000350706280BD11478240708D10C78C4F32A
:107550000314032C06D0042C04D0052C02D00628DA
:1075600007D00EE0B5F82443A54FC4F304243C60D3
:1075700002E01478240704D10C78C4F30314032C1C
:1075800002D0062804D00FE09F4F9E4C7C670EE08F
:107590001478240708D10C78C4F30314032C06D004
:1075A000042C04D0052C02D0062807D00EE0D5F814
:1075B0004442964FC4F342343C6002E014782407FE
:1075C00004D10C78C4F30314032C02D0062806D08F
:1075D00011E08F4C276827F0807727600EE0147841
:1075E000240708D10C78C4F30314032C06D0042C10
:1075F00004D0052C02D006280AD011E04FF08044B8
:10760000C4F80C31C4F81031804C241F236002E010
:107610001478240704D10C78C4F30314032C02D08B
:10762000062805D00CE0794F032464373C600AE05B
:107630001478240704D10C78C4F30314032C02D06B
:1076400006280DD014E0734F05243C60714C78344B
:107650002660704C083423603F243F1D3C6002E0EC
:107660001478240704D10C78C4F30314052C02D039
:10767000062857D062E0684C2468684F3C60664C2E
:10768000241D24683F1D3C60634C083424683F1D62
:107690003C60614C0C3424683F1D3C605E4C1034EF
:1076A00024683F1D3C605C4C143424683F1D3C60E2
:1076B000594C18342468594F20373C60564C1C34C0
:1076C00024683F1D3C60544C203424683F1D3C60BE
:1076D000514C243424683F1D3C604F4C28342468AE
:1076E0003F1D3C604C4C2C3424683F1D3C604A4C90
:1076F00030342468494F40373C60474C3434246868
:107700003F1D3C60444C383424683F1D3C60424C73
:107710003C3424683F1D3C603F4C403424683F1D8E
:107720003C6002E01478240708D10C78C4F30314F9
:10773000032C06D0042C04D0052C02D0062807D038
:1077400019E0D5F85802364A00F04F00106002E008
:10775000107800070FD10878C0F30310032803D076
:10776000042801D0052806D12E480168C90702D097
:107770006FF001010160D5F83001062808D1D5F875
:107780003401062804D12848016841F48061016071
:107790001F487438016841F470010160BFF34F8FD6
:1077A000BFF36F8F4FF01022D2F80C02C00720D029
:1077B0001E4C26601E4801680029FCD0D2F80C122D
:1077C00021F00101C2F80C1201680029FCD02360ED
:1077D00001680029FCD0BFF34F8F0D48F0380168D5
:1077E000144A01F4E06111430160BFF34F8F00BF01
:1077F000FDE7124910480860F0BD0000E00F00F0FE
:10780000403501400DF0ADBA00C007403C050040D6
:10781000FCED00E0105600400404001020C50040BC
:10782000E40E0040000400403C17004004E5014025
:1078300000E401400400FA050090D003A02B0020D2
:107840000448D0F84011012902D10021C0F84011AC
:107850007047000000900040084810B50023C0F8B1
:107860000831074802680849064C08882254401C21
:1078700080B20880C82800D30B8010BD00200040D3
:10788000182500408E410020D82B002038B5064C2A
:107890002068002806D00548406880470020206006
:1078A0002068009038BD000000010140FC2B002042
:1078B00010B5124C032000212061606110A0A0616E
:1078C00004F1A800E0614FF48060A162206261626F
:1078D0000BA0E162206604F59560606610202167C8
:1078E000C4E91A01616709A1E01DFEF7C3FD08A103
:1078F0002046FEF7BFFD2020A07110BD7C45002072
:107900005465726D696E616C000000005254540041
:1079100053454747455200000269C1688A4203D86F
:107920008068401A104400E0501A401E70472DE94C
:10793000FC5F0E008046DDE90C47C6F10000994669
:107940009246834600D40846012502E090FBFAF0F7
:107950006D1C5045FADAA94500D94D4624B1002ED8
:1079600001DB780700D5641EB80702D5B9F1000F16
:107970000FD0F8070DD164B1A5420AD220214046AC
:10798000641E00F09DF8D8F80C000028F3DABDE87A
:10799000FC9FD8F80C000028F9DB002E02DA5E46C6
:1079A0002D2102E0780707D52B21404600F088F80A
:1079B000D8F80C000028EADB07F0030002280FD1FA
:1079C000B9F1000F0CD15CB1A54209D2302140467B
:1079D000641E00F075F8D8F80C000028F3DAD6E73A
:1079E000CDE900474B4652463146404600F002F88A
:1079F000CDE700002DE9F84F8246DDE90A4B01256D
:107A000099461746884608462E4602E0B0FBF7F036
:107A1000761CB842FAD2B14500D94E465FEACB7027
:107A200017D1B4B15FEA8B7002D5B9F1000F02D063
:107A3000202000900BE03020FBE75046641E0099A8
:107A400000F03EF8DAF80C00002835DB0CB1A64255
:107A5000F3D3DAF80C0000282EDBB9F1010F02D9BC
:107A6000A9F1010903E0B8FBF5F0B84201D37D4369
:107A7000F3E7DFF84890B8FBF5F000FB158819F83C
:107A80000010504600F01CF8DAF80C00002803DB68
:107A9000B5FBF7F5002DEED15FEACB700CD0002CD2
:107AA0000AD0A64208D220215046641E00F008F8F1
:107AB000DAF80C000028F2DABDE8F88F30F10200A5
:107AC00010B50446D4E90130421C934205D3236823
:107AD0001954A260E068401CE060D4E901028242CF
:107AE00009D121682069FEF7ADFFA168884203D063
:107AF0004FF0FF30E06010BD0020A06010BD2DE908
:107B0000F047C4681746894605464FF000082869C3
:107B1000A04201D9061B02E0A968201A0E1AA86823
:107B2000761E001BB04200D80646BE4200D33E4639
:107B30006868324620444946FEF763FCA868BF1BCC
:107B40003444B044B144A04200D10024EC60002F82
:107B5000DDD14046BDE8F0872DE9F0410446884676
:107B6000D4E90207C51BE168606816460844B542BF
:107B700006D94146FEF745FCB819E060BDE8F08142
:107B80002A464146FEF73DFC761B08EB05013246CE
:107B90006068FEF736FCE660F0E700000FB4084BC3
:107BA00010B504A902AA039800F032F8044602A90D
:107BB000002000F05EFA204610BC5DF814FB0000C7
:107BC0007380020000487047302C002002E008C893
:107BD000121F08C1002AFAD170477047002001E047
:107BE00001C1121F002AFBD170470000012120288B
:107BF00003DA81400548014003E0402802DA2038DA
:107C0000814009B10120704700207047FC06FFBD8C
:107C10002DE9FF4F8DB00F460546002606E02528CA
:107C20000BD0DDE90F1290476D1C761C28780028D8
:107C3000F5D111B03046BDE8F08F0024A246A14630
:107C40000122EC4900E0044315F8013F203B02FA11
:107C500003F00842F7D128782A2810D06FF02F02BD
:107C60002878A0F13001092914D80AEB8A0102EB27
:107C7000410144F0020400EB010A6D1CF0E701CF62
:107C80005FEA000A03D544F40054CAF1000A44F044
:107C900002046D1C28782E2817D115F8010F44F026
:107CA00004042A280ED06FF02F022878A0F13001AA
:107CB00009290AD809EB890102EB410100EB01090E
:107CC0006D1CF2E757F8049B6D1C28786C280FD0C8
:107CD00006DC4C2817D068280DD06A2814D104E09F
:107CE000742810D07A280FD10DE044F400140AE073
:107CF00044F4801401E044F440146978814202D1D4
:107D000004F580146D1C6D1C2A786E2A1FD00CDCC3
:107D1000632A31D004DC002A8BD0582A11D1A3E089
:107D2000642A68D0692A0CD165E0732A2ED004DC5D
:107D30006F2A73D0702A04D19BE0752A6FD0782AFD
:107D40006ED01046DDE90F129047761C50E1C4F367
:107D50000250022806D0032809D0042801CF09D0F8
:107D6000066045E101CFF117C0E9006140E101CFB4
:107D700006803DE106703BE117F8040B8DF800002A
:107D800000208DF80100EB46012003E057F804BB0A
:107D90004FF0FF3061074FF0000102D40DE008F111
:107DA0000101884649450FDA8045F8DB1BF80810C9
:107DB0000029F4D108E008F1010188468142FADB8C
:107DC0001BF808100029F6D1DDE90F23AAEB080003
:107DD0008146214600F036F9304400EB080604E005
:107DE000DDE90F121BF8010B9047B8F10108F7D23B
:107DF00021464846F7E00A21C4F302534FF0000B36
:107E00000891022B04D001CFC117032B09D00AE03F
:107E1000FF1D27F00707F7E8020108E032E01FE046
:107E200020E000B2C117042B01D140B2C117031EDC
:107E300071F1000307DA4FF0000CD0EB0C006CEB93
:107E400001012D2302E0230504D52B238DF82430D6
:107E5000012303E0E30701D02023F7E7984658E029
:107E60000A2110E010210EE010204FF0000B0890C6
:107E70000CE010214FF0000B44F004044FF008090F
:107E8000089103E008214FF0000B0891C4F302535E
:107E9000022B04D001CF0021032B06D006E0FF1DEA
:107EA00027F00707F7E8020103E080B2042B00D1B6
:107EB000C0B24FF0000823072BD5702A07D0DDF899
:107EC00020C08CF0100C5CEA0B0C05D00EE04023B7
:107ED0008DF82430012308E050EA010306D0302356
:107EE0008DF824308DF8252002239846DDF820C037
:107EF0008CF0080C5CEA0B0C0BD150EA010301D1A9
:107F0000630706D530238DF824304FF00108A9F11E
:107F10000109582A04D038A20B9208AA0A920BE051
:107F20003AA2F9E75B46089AFEF7EBFA0B9B9B5CDB
:107F30000A9A521E0A92137050EA0102F2D10A986C
:107F4000ADEB000000F1200B600702D524F4803473
:107F500001E04FF00109D94502DDA9EB0B0000E07B
:107F6000002000EB0B0141440890AAEB010AE0035A
:107F700006D4DDE90F232146504600F063F806449D
:107F80004FF0000908E009A911F80900DDE90F1216
:107F9000904709F10109761CC145F4DBE0030CD5DB
:107FA000DDE90F232146504600F04CF8064404E07A
:107FB000DDE90F1230209047761C0899481E089082
:107FC0000029F5DC08E00A980A990078491C0A9112
:107FD000DDE90F129047761CBBF10001ABF1010BFC
:107FE000F1DC21465046DDE90F2300F019F8064484
:107FF0006D1C1BE609280100303132333435363729
:1080000038396162636465660000000030313233E4
:108010003435363738394142434445460000000084
:108020002DE9F041044600251E461746880404D475
:1080300005E039462020B0476D1C641EF9D528465E
:10804000BDE8F0812DE9F041044600251E4690462A
:10805000C80301D5302700E02027880404D505E0B7
:1080600041463846B0476D1C641EF9D52846BDE828
:10807000F0810A68531C0B601070704702490120A0
:10808000C968486070470000A82B0020800701D015
:108090000020704701207047C3688B4206D8114406
:1080A0000069491E814201D80120704700207047B5
:1080B00010B50321044800F051FF002803D0BDE8AB
:1080C000104000F04BB810BDD8380020044890F89C
:1080D000540074DF002801D000F040B87047000061
:1080E000D838002010B5946801F09CFF0246234662
:1080F0000DA10020FEF7F0FC002C14D0082C12D0AB
:10810000132C10D0112C0ED0052C0CD0BFF34F8F98
:1081100010490868104A00F4E06010430860BFF39B
:108120004F8F00BFFDE710BD0A2564206170705FAE
:108130006572726F725F6661756C745F68616E64A0
:108140006C6572202F206572725F636F6465203DDD
:10815000202564000CED00E00400FA050EB50021B6
:108160000091CDE901106A4644F20100FFF7BAFF21
:108170000EBD0000084B9B7823B12AB120B10068E6
:10818000037C1BB10820704707207047002303744D
:1081900041744261184670479043002070B505F065
:1081A00075F9104800240B21047044700E4D817045
:1081B00014206C602C706C70FEF79AFB0621142062
:1081C000FEF7B7FB1420FEF79EFB0848046006216B
:1081D0001120FEF7AEFB0548001F0068A8600020D4
:1081E00070BD000090430020042C002008150140C1
:1081F0002DE9FC47DFF8749099F802305BB350B377
:10820000052902D20720BDE8FC8743691BB3437CE4
:10821000012B22D0002705460024884616468DF8FB
:108220000040684600F036F801A806F0D5FCB0B171
:10823000012101700E4945600968C0E90218C0E9D2
:1082400004769DF8040089F801009DF8000000F014
:1082500043F834B108E00820D5E70F46DBE70424F3
:10826000F3E71420FEF75AFB2046CCE790430020AA
:10827000041501400649897839B130B1416921B10D
:1082800000210174022106F009BB0820704700009C
:108290009043002030B5EFF3108372B60C4A946817
:1082A000012184B991604FF0E021D1F88051094C4F
:1082B00025401560C1F88041D1F8844154604A17C7
:1082C000C1F8842100210170002B00D162B630BDBD
:1082D0009C440020FC06FFBD0B498A68002A11D08F
:1082E00000280FD1EFF3108072B60B684FF0E02238
:1082F000C2F800314B68C2F8043100228A600028BD
:1083000000D162B6704700009C44002070B5FEF7B3
:1083100073FE0A4D0A4E4FF6FF74072003F0BDF9B5
:10832000002809D007A10020FEF7D6FB0A2003F0A1
:108330002DF83560641EF0D170BD00003546526ED8
:10834000000601402E0000002DE9FC5F01F06AFEEE
:1083500008274FF000090024FF26DFF858A1DFF8B6
:1083600058B10CE05DB1A5B38DF8049001A806F0FA
:1083700029FB78B39DF80430162B2CD032E0052C65
:1083800015D2DFE804F003060B0E11004FF416506F
:1083900001E04FF4964006F08BFB0DE04FF41640E1
:1083A000F9E74FF46140F6E74FF4E130F3E74FF4BB
:1083B000165006F07DFB01240125102006F05AFB23
:1083C000042006F057FB012006F054FB01F02AFEC2
:1083D000804613E006E02646324638A10020FEF72C
:1083E0007BFB052401F01EFEA0EB08000A2805D344
:1083F00001F018FE0025641C8046E4B2CBF800A012
:10840000042CAFD9FF2E36D0304C6078B04202D168
:108410002079B8422BD066702771012002F06AFCE7
:10842000642002F0B3FFCDF8009020794FF4C0250E
:108430000102E0780843617841EA0021207840EAAF
:10844000012004F02DFD684604F0C0FA01462846DC
:10845000009A02F01FFD0099012000EB910002F04C
:1084600095FF0A2002F092FF1948FF21017000F0E9
:10847000D9F8BDE8FC9F164C207801280BD04F207E
:10848000FFF744FF4E20FFF741FF7F1CFFB20A2F8A
:10849000FFF461AFEDE74FF0A0414FF40000C1F8E9
:1084A0000C05192003F016F902202070642002F058
:1084B0006DFFEAE73546526E000601400A5B25640F
:1084C0005D5278203A20307825780000602E002018
:1084D0002C2B00202DE9F05F00252C4601F0A2FD99
:1084E0008146162003F0D9F8DFF8FCB04FF0010AFE
:1084F000012863D03D4E3E4F4FF47A78162003F0AA
:10850000CCF868B113E0002DF8D0012D11D0022D68
:1085100014D0032D20D0042D38D0052D41D150E0AA
:10852000641CE4B20A2C3CD90024012539E0002463
:1085300037E04F20FFF7EAFE022532E0162003F075
:10854000ACF80128F3D1641CE4B20A2C29D900F05C
:1085500055F80024032524E0162003F09EF8002897
:10856000E5D1641CE4B20A2C1BD9172003F0B2F841
:108570004FF0A0424FF00071C2F80C158BF800A02C
:10858000642002F003FF002404250AE0162003F013
:1085900084F80128CBD1641CE4B20A2C01D9002450
:1085A00005253E6001F03EFDA0EB09004045AAD341
:1085B00000F024F89BF80000FF2813D00020BDE84D
:1085C000F09F0C4C002020600B490E2008600B200F
:1085D00003F080F80E2003F07DF8C4F800A0FFF748
:1085E000B3FEE5E70120EAE72C2B00203546526E6A
:1085F00000060140002000401425004010B5074C43
:108600000020206006490B20086003F063F80E206C
:1086100003F060F80120206010BD00000020004041
:10862000142500402DE9F047DFF87C918AB0DFF88F
:108630007481C9F800805DA16846FFF7AFFA68460B
:1086400006F02AFA60A16846FFF7A8FA684606F025
:1086500023FA64A366A269A16846FFF79FFA6846F9
:1086600006F01AFA694C2078052803D0062803D0B2
:10867000072803D066A102E068A100E06AA168466D
:10868000FFF78CFA684606F007FA6BA16846FFF719
:1086900085FA2079082803D0092803D00A2810D0A9
:1086A0006BA100E06FA16846FFF778FA684606F014
:1086B000F3F96078052842D2DFE800F041053B3D40
:1086C0003F006DA1EFE771A16846FFF767FA6846C2
:1086D00006F0E2F904F072F9024671A16846FFF76C
:1086E0005DFA684606F0D8F904F06CF9024670A10C
:1086F0006846FFF753FA684606F0CEF9E078C0F115
:108700001000C11700EB9170012101EBA0026CA1D8
:108710006846FFF743FA684606F0BEF96CA1684662
:10872000FFF73CFA684606F0B7F96C488788C588B9
:1087300028E06BA1C8E76FA1C6E773A1C4E777A1E2
:10874000C2E77E1B1E2E00D3212605F5006080B2F5
:10875000774B3246694601F03BFB01E0C9F80080E7
:10876000FEF7C0F80028F9D10024EA4607E00AEB3A
:108770000400641CC07806F07DF9C9F80080A642A8
:10878000F5D83544AF42DCD869231B2269A168467D
:10879000FFF704FA684606F07FF9C9F800800AB0CE
:1087A000BDE8F0873546526E0006014053686F7091
:1087B0004F6E41697220504F5320436F6E6E656358
:1087C000746F720A000000003D3D3D3D3D3D3D3D62
:1087D0003D3D3D3D3D3D3D3D3D3D3D3D3D3D3D3DC9
:1087E0000A0000004D617220203220323032300009
:1087F000534F415F50435F3030310000462F5720C8
:108800005665723A2025732025730A00602E0020D9
:108810004D4F4445203A20504F530A004D4F444598
:10882000203A204341540A004D4F4445203A204B02
:1088300045595041440A00004C414E47203A20B06F
:10884000A1B3AAB4D9B6F3B8B6B9D90A00000000EA
:1088500054595045203A205052494E5445522041D7
:108860000A00000054595045203A205052494E54B5
:10887000455220420A00000054595045203A2050E9
:1088800052494E54455220430A000000424155448B
:1088900052415445203A2031393230300A0000002C
:1088A000434152442043484B3A25730A00000000DC
:1088B000544F54414C20414D543A25730A00000056
:1088C000564F4C554D45203A2025640A00000000C3
:1088D000515220434F4445203A200000303B0020B5
:1088E0004241554452415445203A203338343030C7
:1088F0000A0000004241554452415445203A203577
:10890000373630300A000000424155445241544548
:10891000203A203131353230300A0000424155448E
:1089200052415445203A20393630300A00000000C8
:1089300013D302000A0A0A0A0A256325630000000D
:108940002DE9F0430024814625462F466FF02B0089
:10895000404E24E0A3EB040CBCF1020F04DB12F840
:1089600004C0BCF10D0F2CD012F804C0BCF10A0FEA
:1089700013D0BCF13D0F2CD0BCF17F0F1FD812F8E3
:1089800004C016F80CC0BCF17F0F18D0BCF1400F2A
:1089900001D2002F13D16D1CADB2641CA4B29C4255
:1089A000D8D3D5B105EB4500072303EB40000B8876
:1089B000C0F3CF00834212D208806FF02900BDE8D7
:1089C000F08302EB040C9CF801C0BCF10A0FE4D068
:1089D000D5E77F1C022FF2D8D1E70020EFE703256F
:1089E00000231F4648462EE092F800C0BCF10D0F50
:1089F00026D0BCF10A0F23D016F80CC0BCF1400FF2
:108A00000BD04FF000087F1C63F39F1CBFB2A5EB97
:108A100008056346042F03D012E04FF00108F2E787
:108A200000276DB14FEA134C00F801CB012D07D997
:108A30004FEA132C00F801CB022D01D900F8013BBD
:108A4000641EA4B2521C002CCED1A0EB09000880F9
:108A5000C3E7000086EF02002DE9F04782466BB1C4
:108A6000DC000620B4FBF0F080B2A0EB800504EB44
:108A70004504022C05D0042C07D104E00020BDE8F9
:108A8000F087C01C00E0801C80B20C88401C84422F
:108A900003D208806FF02900F1E70320B3FBF0F068
:108AA00000EB40001FFA80F900245046DFF8B4C004
:108AB00025E012F8016B12F8017B4FEA96083601A7
:108AC00006EB271612F8015B1CF8088006F03F063B
:108AD00000F8018B1CF8066000F8016BBE0006EB85
:108AE000A51606F03F0605F03F051CF8066000F8E5
:108AF000026B1CF80550E41C00F8015CA4B24C4564
:108B0000D7D39C4227D212F8016B3D25641C9C42AE
:108B100001D2127801E04FF000024FEA96031CF8F0
:108B2000033000F8013B4FEA061303EB221303F076
:108B30003F031CF8033000F8013B08D24FF03C0320
:108B400003EA82021CF8022000F8012B01E000F881
:108B5000015B00F8015BA0EB0A020A804FF0000104
:108B600001708BE746EF02000C48002101600B4AC0
:108B70000621083211600521121D1160074A0821E3
:108B800088321160054A012194321160054A044976
:108B9000C2F8081309210160704700000035004049
:108BA000020218060030004070B51500044609D0D6
:108BB0000020286034B1206820B1A079800703D05C
:108BC000072070BD0E2070BD084600F027FBC0B224
:108BD000142804D02179814203D8042070BD0520D7
:108BE00070BDE288216800FB02102860002070BD83
:108BF0002DE9FC410446002016880F46108094F8A9
:108C00002D101546804631B132462946384600F0CF
:108C100019FB00287DD1A17801B32888001DB0423E
:108C200001D90C2018E0684679DFA8B92A88032109
:108C3000B95428881922401C80B228803A542888C8
:108C4000401C80B22880C119BDF8000005F05AFF11
:108C5000298808442880404600285AD1E278022119
:108C6000CAB1288894F90320C31CB34201D90C204F
:108C70000FE0395428880123401C80B228803B54DF
:108C80002888401C80B228803A542888401C2880BC
:108C90000020002875D16268CAB1288892F90020A6
:108CA000C31CB34201D90C200FE0395428880A2193
:108CB000401C80B2288039542888401C80B228800B
:108CC0003A542888401C28800020002859D1218946
:108CD00051B1CDE900563B460622022104F10800BD
:108CE00005F092FF00284CD1218A51B1CDE9005600
:108CF0003B460722032104F1100005F085FF002800
:108D00003FD1218B61B115223B46142104F118009B
:108D100000E036E0CDE9005605F076FF002830D1BE
:108D2000D4F820C0BCF1000F07D033462A4639469C
:108D3000604600F092FF002823D1D4F824C0BCF193
:108D4000000F07D033462A463946604601F022FF1D
:108D5000002816D194F82C1039B133462A463946EA
:108D6000204604F08DFE00280BD12178002908D080
:108D700002B033462A4639462046BDE8F04101F0AC
:108D80003BBFBDE8FC8118B504460020ADF80000EB
:108D900013466A46204600F006F8002802D0BDF8C7
:108DA0000000204418BD70B588B182B10024158838
:108DB00003E0065D641C3444A4B2A54203D806193E
:108DC00076789E4201D08C42F3D38C4201D30020AE
:108DD00070BDA11C1180005D401E80B270BD80F886
:108DE000301070472DE9F0410D00044605D024B144
:108DF00095F87A00012803D006E00E20BDE8F08146
:108E000095F8980001282BD0D5F8A000042827D089
:108E1000D5F89C00042823D04FF00008464684F87B
:108E200002802C2205F17801201DFDF7EAFA84F872
:108E30003060D5F8A4006063D5F8A800A0634FF6B1
:108E4000FF70A4F8480204F50D70C4F84402C4F899
:108E50004A62A4F84E6284F85062207810B104E0AF
:108E60000720CBE7FF2084F8540004F15501C4F833
:108E7000341294F82400EE261F27012832D0A4F8DB
:108E8000387204F50E722846FFF7B2FE0028B5D1FD
:108E900004F24311C4F83C1294F82400012824D0B1
:108EA000A4F8407204F5107205F13C00FFF7A0FE33
:108EB0000028A3D1012584F85150208BA4F8480044
:108EC00084F83C50C4F8408084F850806069606445
:108ED00004F13C02002104F1540072DF00288DD11E
:108EE00025708BE7A4F83862CBE7A4F84062D9E795
:108EF00010B50288102A1BD0112A20D0262A1DD195
:108F0000007A0C46012801D0022817D1A07805214B
:108F1000401CB0FBF1F201FB1201204600F01EF8EC
:108F200000280BD0A16B002908D0BDE810400847ED
:108F3000C27B012A02D18088A1F8480210BD0C46EC
:108F4000002184F852128088B4F848128842F5D182
:108F500020790028F2D10121DFE770472DE9F05F89
:108F6000044600788846B8B184F802800025C4F829
:108F70004A52A4F84E5284F85052A079012610B1FA
:108F8000B8F1010F0BD0E07990B1B8F1010F06D024
:108F9000B8F1020F03D00BE00820BDE8F09F616B31
:108FA00021B184F851620820884701E084F85152C9
:108FB00004F24B2100200A5C0AB1304603E0401C59
:108FC0000628F8D3002002274FF0030BB8F1010F59
:108FD00009D0B8F1020F0ED0B8F1030F10D0B8F1DC
:108FE000040F15D110E0A17929B194F8241011B91A
:108FF00008B130460DE0E17911B108B1384608E01A
:10900000207A08B1584604E0607A08B1042000E0F4
:109010002846A070616B41B1032801D0042804D117
:10902000607910B194F85202A0B184F8535204F15F
:109030003C0018218046FDF7FDF904F12C0084F86E
:109040003C60814603F078F958B194F82C0084F81C
:10905000510008E084F8545284F85362072088478E
:10906000E5E784F8516094F8240050B1484603F0D5
:1090700063F920B194F8280084F8520001E084F8E4
:10908000526084F85050A27804F24A2104F50D7918
:109090004FF0060A052A65D2DFE802F07D030F23B0
:1090A000430084F83160C4F84452C4E9101584F8D0
:1090B0003C708020A4F8480056E084F8317094F8A1
:1090C0002420404612B10722027001E080F800B06F
:1090D000228A8281C4F844524160E168C8F80810CD
:1090E00042E06069C8F80800208BA8F80C0094F8EA
:1090F0002400454610B184F83CA001E084F83C60AF
:10910000204605F04BFD48B12F750421204600F0A4
:1091100003FF38BB052184F8311021E084F831B019
:109120001EE0E069C8F80800208CA8F80C0094F84C
:109130002400454610B184F83CA001E084F83C606E
:10914000204605F02BFD40B12F750421204600F08C
:10915000E3FE38B984F831A002E0042084F831003D
:10916000C4F84492A07878B1424604F15400D4F88F
:10917000441272DF00287FF410AF94F8301094F896
:10918000540073DF0028F6D1616B11B194F83100FF
:109190008847002001E784F83150F5E72DE9F041D8
:1091A000040012D001461C221948FDF72AF918487C
:1091B000184D0560206858B17ADF002806D1206874
:1091C000016829604068686006E00E20BDE8F08113
:1091D00010487BDF0028F9D10D4D0024143D4FF6D7
:1091E000FF76A5F1200704EB840005EB800007EB78
:1091F000441120F8046B084A01600021FEF7BAFF11
:1092000008B10320E2E7641CEDD00020DEE7000097
:109210008C420020EC2B002031EB020010B50446FC
:1092200000F006F808B1204610BD142010BD000063
:10923000142801D3002070470146014801F0EEBE1A
:10924000AC4200207CB5054608880C4609309042A7
:1092500001D90C207CBD68466DDF0028FAD1218839
:109260000820685420881B21401C80B2208029548B
:109270002088401C80B220802844DDF80110016065
:10928000BDF8051081802088801D80B220809DF867
:109290000010490800D0012129542088401C20805A
:1092A00000207CBDF8B5434B0446008800269D880D
:1092B000212860D017DC10281FD0112845D0132892
:1092C00062D01C2840D194F908203BA10020DA602C
:1092D000FDF702FC94F908103A4811F13C0F30DA1E
:1092E0000121C1772EE03B285FD0522852D056286A
:1092F0002AD1A088132176DF51E033481E70066022
:10930000A1889980314801F09FFF08B1FEF726FF40
:10931000284816306DDF2748A17B103000224171AC
:10932000617B0171217BC170E17A8170A17A41700A
:10933000617A0170A088114688DFBDE8F84004F02A
:109340006BBCC677A08889DFF8BD4FF6FF709880A8
:109350005E7000F061FE022805D1012004F050F893
:10936000012004F04DF800F0DDFBBDE8F8404FF2BD
:109370007F7000F0F5BB0096A08869468FDF00285B
:10938000E2D0FEF7EBFEF8BD00231A468521284601
:109390007FDF04E000231A4619462846B1DF002883
:1093A000F1D0BDE8F840FEF7D9BEA088132176DFE2
:1093B000F5E70000D02A00200A525353493A2025ED
:1093C00064000000602E0020B42A0020CC38002069
:1093D0002DE9F04701883B4E40F2F3194FF6FF7537
:1093E00010291BD011293ED0122954D0502946D122
:1093F000C188F289841D914241D1618902293ED1FF
:109400008688304601F0F4F8050038D004F10C00ED
:1094100000F090F9A8B3294630464EE0C17B87881A
:10942000044601292BD1A846284601F0E1F80500A1
:1094300017D02F8000202872234843464A460168EF
:10944000C5F80A104068C5F80E0004F1100105F1D6
:109450000A0001F041F96872F08900280FD129460D
:109460002AE0042013E0808801F0C2F8040006D04E
:109470006068FEF7FFFE08B104F0F0F82580BDE853
:10948000F087FFE76868FEF7F5FE0028F7D0BDE833
:10949000F04704F0E3B887880646384601F0A8F89C
:1094A0000400ECD02B464A4606F1080104F10A00FC
:1094B00001F012F9607221463846BDE8F04700F02D
:1094C00015BC00008C420020EC2B00202DE9F04F51
:1094D0000646B0F804800088DFF8F0B097B0102896
:1094E00009D0112847D01A286CD1307A0121B1EB6C
:1094F000101F43D243E0354F083FB868C043169071
:10950000796816A801F0A2FD16990BA800F086FB59
:109510002C220BA96846FCF774FF0025EA460EE0F2
:109520000AEB45000024B0F8049007EB840049469C
:10953000001D01F068FD641C1D2CF6D36D1C009805
:10954000A842EDD84446B8F1140F05D317B0042053
:10955000BDE8F04FFEF702BE4146584601F069FDF6
:109560002146381D01F065FDF07B01282AD01748FF
:109570004146001D17E0414658461BE000210222EB
:10958000B2EB101F01D2012400E000240F4D083D72
:1095900005F1100014350029414610D001F049FDB5
:1095A00034B14146284617B0BDE8F04F01F041BD47
:1095B0004146284617B0BDE8F04F01F024BD01F048
:1095C00022FDF5E717B0BDE8F08F0000B0420020A3
:1095D00070B50400264892B00DF1200C6CC88CE8E0
:1095E0006C002DC80CAE86E82D003ED0E1B30868B3
:1095F000A061214608A862DF002833D120788DF8C9
:10960000420044F6C640ADF84000A21C10A901205B
:10961000A8DF002826D121460CA862DF002821D12E
:1096200020216846FCF706FF4EF2E750ADF8000037
:1096300020788DF80200F420ADF8040001208DF8A8
:109640000C009DF80D108DF8120041F018018DF8F6
:109650000D10ADF806008DF813006088221D6946D4
:1096600000F0B4F812B070BDFFE70E20FAE700007A
:1096700014EF02007FB504000CD0A3F57F45FF3D39
:109680000AD048B1207848B11088F42808D90720BA
:1096900004B070BD0E20FBE70520F9E70820F7E7CE
:1096A00000200090019002900390A088ADF8000087
:1096B000CDE9022101208DF8020069461846AEDF8F
:1096C000E6E770B588B00446002925D0002C23D0E9
:1096D00008462188102921D0502925D057291BD18F
:1096E0000546A188406906AAFFF75EFA002813D153
:1096F000069E307870B118216846FCF79BFE012069
:109700008DF800000195A088ADF808000396A969BE
:109710006846884700F0B2F908B070BD08B021462D
:10972000BDE8704002F06EBB08B02146BDE8704055
:1097300002F09EBB007800F001007047024881688B
:10974000491C816070470000A82A002005494FF09D
:10975000FF32082841F8202002D3084480F848202E
:109760007047000034430020F0B506464FF0FF304C
:10977000002A02D04FF0000301E04FF0080302D0AE
:109780004FF0080501E04FF00C050B4C04E054F8D5
:1097900023707F1C03D05B1CAB42F8D3F0BDA5192E
:1097A00058B285F8300044F82310002AF6D1E118A9
:1097B00081F84860F0BD00003443002002490844AD
:1097C00090F9300070470000344300202DE9F04349
:1097D0008146887891B090460C4600B901208DF8FA
:1097E0003E0020880025ADF83C000D95607C0DA959
:1097F00004F08EFA0DAEA07C711C04F089FAE07BB7
:1098000000289DF8360002D040F0080001E020F06A
:1098100008008DF83600217C11B140F0100001E005
:1098200020F010008DF83600217B11B140F00100CE
:1098300001E020F001008DF83600217D09B1022100
:1098400000E0012161F342008DF836001C216846DA
:10985000FCF7F0FD607BC10601D4800617D50E959C
:109860000EAFE07C791C04F053FA9DF838000597A0
:1098700020F00F00401C20F0F00010308DF8380070
:109880009DF83A0020F00600801C8DF83A00607BBD
:109890008DF80000A07B8DF80100142107A8FCF7CB
:1098A000C9FD0FA8CDE90706A088ADF82800A0687B
:1098B00020B1E088ADF82400A0680B90A06998B3AF
:1098C0000C950088ADF80800A0690CAD0CA9408883
:1098D000ADF80A00A069406804950190A069007B7A
:1098E00004F016FAA069691C407B04F011FAA06923
:1098F000807A00289DF8320002D040F0080001E094
:1099000020F008008DF83200A169C97A11B140F049
:10991000100001E020F010008DF83200A169097AF2
:1099200019B140F0010002E00DE020F001008DF8D7
:109930003200A169897B09B1022100E0012161F3B4
:1099400042008DF83200E06900B10390434607AA57
:1099500069464846AADF11B0BDE8F0832DE9F04121
:109960001F4A00251F4CD07F4FF2FF77A2F1180647
:10997000012819D03046937F80684FF49671012BEF
:1099800017D0D279002A29D100F0E4FA002825D096
:10999000A26815A10020FDF79FF801F081F9384673
:1099A000BDE8F04100F0DCB8D577A26818A1B2603C
:1099B000F0E700F0CFFA38B1A068B060592002F0AB
:1099C0001DFD1BA1A268E5E7E0683C2806D95920E7
:1099D000E56002F013FD1DA1A268DBE7BDE8F081A0
:1099E000602E0020A82A00200A256420424C452031
:1099F000444953434F4E4E454354205354415445DC
:109A0000203320534543204F56455254494D45007D
:109A10000A256420466F72636520446973636F6E24
:109A20006E65637420536F756E64285829000000BA
:109A30000A256420464F5243455F444953434F4EE5
:109A40004E5F534F554E4420320000000A256420DB
:109A5000464F5243455F444953434F4E4E5F534F29
:109A6000554E44203A2031206D696E206F76657224
:109A7000206166746572207461670000044908897A
:109A800008B1401E08810349002081F8C4027047D4
:109A9000102B0020303B00203EB500248DF8004004
:109AA0008DF8014002226946204600F0A3F9FCF738
:109AB00019FF0028FBD1084814214480048080F855
:109AC000C34200F2AE20FCF7B5FC044884714FF4A9
:109AD000006000F045F83EBD303B0020602E0020C5
:109AE00070B5084C05000AD010342168002901D057
:109AF0000868206005D0496828468847F5E708349B
:109B0000F3E770BD20430020054A012120B1012860
:109B100005D19170FFF7E4BF51700020FAE770475C
:109B20002043002004490020C871044804A1826831
:109B30000020FCF7D1BF0000602E0020A82A0020E2
:109B40000A256420424C455F4741505F4556545FAB
:109B5000444953434F4E4E45435445440000000092
:109B600002498A8882438A8070470000A82A002020
:109B70002DE9F05F26494868F0B3DFF898B0076830
:109B80008946DBF800408E68A01B20F07F4588786E
:109B9000ED1CB0B9DFF880804FF48030C8F8440382
:109BA000C8F804031120FCF7A3FE1120FCF7ABFE5C
:109BB0004FF0010AC8F800A02F2001F09DFF89F89E
:109BC00002A0BD4200D23D46124AA8193C3220F004
:109BD0007F401060DBF800105B46091B21F07F41DD
:109BE000001B20F07F40C91C81420FD9186810600B
:109BF0002F2001F081FF00E004E0BDE8F05F1120BC
:109C0000FCF78CBEBDE8F05F03F040BCBDE8F09F00
:109C1000042C0020041501400010014073B58CB0E5
:109C20000646002000900D9880B100246D46214624
:109C30000DA801F0F3F930B1009805EB40008480E5
:109C40000098401C0090641C142CF0D32C22694610
:109C50003046FCF7D6FB0EB070BD2DE9F0410D4645
:109C600011880646881D1446984202D90C20BDE88A
:109C7000F0813088062814D34FF448674FF6FF73FD
:109C8000B84201D998420CD17288062A09D3BA4247
:109C900001D99A4205D1984205D09A4203D0904208
:109CA00001D9072000E000200028E0D105206854F9
:109CB00020881221401C80B2208029542088401C1A
:109CC00080B220804119308804F01CFF21880844AC
:109CD00080B220804119708804F014FF2188084464
:109CE00020800020C3E7FEF739BA000038B54A7A71
:109CF0000F4B62B100220A725969002906D0012275
:109D00008DF80020ADF802006846884738BD0A7A11
:109D100062B19B684C68024619462046FEF768FA15
:109D20000028F3D0BDE8384003F098BC5B68F1E749
:109D30008C42002010B5FCF7C9FD20B1BDE81040F1
:109D40001E2001F09CBC174A0021174C5088138834
:109D5000984208D115480078062804D0072808D171
:109D600092F8C30228B1A170BDE810401E2001F096
:109D7000C6BCA078401CC0B2A0700A2802D00B2834
:109D800004D006E01E2001F07AFC02E01E2001F063
:109D90008CFCA0781421B0FBF1F201FB1200A07042
:109DA00010BD0000303B0020A82A0020602E0020BB
:109DB00086B000220092ADF80010ADF802100192BA
:109DC0000492059204AA694690DF06B07047704776
:109DD000F8B50D4606490324060A0C704E708870CB
:109DE0000093D31C2A462146014804F021F8F8BD0F
:109DF000843F002030B40A4C0B4602212170010A36
:109E00006170A0700321002003E01D5C6554401CBC
:109E1000491C9042F9D330BC014804F035B8000029
:109E2000843F0020034901220A7048700221014842
:109E300004F02AB8843F00200E4A10B511785478F7
:109E40000023A14212D0491CC9B21170022900D1CD
:109E50001370084913780C3151F823100160906891
:109E6000084420F07F409060012010BD0360002076
:109E700010BD0000042C00202DE9F843104D0F46C2
:109E800080461E4691466946286801F090F8040015
:109E900014D01C21FCF7CEFA01202071C4F81490D4
:109EA000380BC4F80080C4E902606946286801F0F4
:109EB0009FF803F08BFA0020BDE8F8830420FBE74D
:109EC00038F0020030B50446006887B00D4680685F
:109ED00000281FD018216846FCF7ACFA0195A0684D
:109EE0000590207910B1012810D107E001208DF8EC
:109EF000000020690290E068039005E002208DF8E0
:109F00000000E068000302906069049020688168A6
:109F10006846884707B030BD70B50D460446B0F8B6
:109F20003812D0F834020122FEF72DFF00B105707F
:109F300004F13C0204F50D7104F1540072DF70BDB0
:109F400070474FF0FF3100203DDF002801D1B121E3
:109F50003CDF7047054A9268824200D2D243101A11
:109F6000884201D90120704700207047A82A0020AC
:109F700006484A8883889A4207D10A88A2F5206356
:109F8000773B02D18988C91EC1807047D02A002042
:109F900010B50949094801F088F808B1FEF7DEF864
:109FA000F721064801F075F8002803D0BDE81040FD
:109FB000FEF7D4B810BD0000719F0200B838002031
:109FC0002DE9F8431E460F468046ADF80020FCF709
:109FD00077FC00281ED1FCF779FC00281AD000F08D
:109FE00021F8054633466A4639464046FFF742FBAC
:109FF0000446082806D0132C04D0052C02D008B142
:10A00000FEF7ACF81421284603F05EF9002801D1D0
:10A01000132CE7D0BDE8F8830148C08870470000E2
:10A02000A82A00200148806870470000A82A002064
:10A030000A4808B50068009003208DF8010001F07F
:10A0400053FE08B901F01AFE054A6946162001F0D0
:10A05000ADFD0121162001F057FD08BD50EE0200B4
:10A0600041DD020010B50A4941600A4800F0EBFFEB
:10A0700058B901F0A3FC07491C238C22087404483A
:10A080008C39001F006800F07FFF002010BD000029
:10A090003CF002004445002004480349002281614D
:10A0A000034801F0E8B9000048F00200A82A0020A7
:10A0B000342C00202DE9F04F6F4C8DB0207903F047
:10A0C00009FE02F0EFFF6DA16846FDF767FD6846E7
:10A0D00004F0E2FC70A16846FDF760FD684604F0FC
:10A0E000DBFC74A376A279A16846FDF757FD6846AC
:10A0F00004F0D2FC2078052803D0062803D00728D6
:10A1000003D076A102E078A100E07AA16846FDF7CD
:10A1100045FD684604F0C0FC7AA16846FDF73EFDA7
:10A12000684604F0B9FC2079082803D0092803D038
:10A130000A2810D079A100E07DA16846FDF72EFD28
:10A14000684604F0A9FC607805284CD2DFE800F0EE
:10A150004B05454749007BA1EFE77FA16846FDF726
:10A160001DFD684604F098FC02F028FC02467FA121
:10A170006846FDF713FD684604F08EFC02F022FCF1
:10A1800002467EA16846FDF709FD684604F084FC9E
:10A19000E078A346C0F11000C11700EB91700121D7
:10A1A00001EBA00279A16846FDF7F8FC684604F0CF
:10A1B00073FC7AA16846FDF7F1FC6A467AA100209B
:10A1C000FCF78AFC684604F067FC7848DFF8E08119
:10A1D000DFF8E0918788C58828E077A1BEE77BA1FA
:10A1E000BCE77FA1BAE783A1B8E77E1B1E2E00D390
:10A1F000212605F5006080B2834B32466946FFF7A1
:10A20000E7FD01E0C9F80080FCF76CFB0028F9D1FC
:10A210000024EA4607E00AEB0400641CC07804F05E
:10A2200029FCC9F80080A642F5D83544AF42DCD8F5
:10A2300069231B2275A16846FDF7B0FC684604F04F
:10A240002BFCC9F8008000208DF824008DF8250033
:10A25000022209A9FFF7CEFDFCF744FB0028FBD141
:10A260005C469BF80300FDF779F8207802F0B2F81D
:10A270000DB0BDE8F08F0000602E002053686F70B5
:10A280004F6E41697220504F5320436F6E6E65636D
:10A29000746F720A000000003D3D3D3D3D3D3D3D77
:10A2A0003D3D3D3D3D3D3D3D3D3D3D3D3D3D3D3DDE
:10A2B0000A0000004D61722020322032303230001E
:10A2C000534F415F50435F3030310000462F5720DD
:10A2D0005665723A2025732025730A004D4F444578
:10A2E000203A20504F530A004D4F4445203A204316
:10A2F00041540A004D4F4445203A204B45595041A6
:10A30000440A00004C414E47203A20B0A1B3AAB401
:10A31000D9B6F3B8B6B9D90A00000000545950456F
:10A32000203A205052494E54455220410A00000024
:10A3300054595045203A205052494E5445522042DB
:10A340000A00000054595045203A205052494E54BA
:10A35000455220430A0000004241554452415445B1
:10A36000203A2031393230300A0000004341524453
:10A370002043484B3A25730A00000000544F5441D3
:10A380004C20414D543A25730A000000564F4C555D
:10A390004D45203A2025640A000000005152204318
:10A3A0004F4445203A20000025730000303B002038
:10A3B0003546526E000601404241554452415445D3
:10A3C000203A2033383430300A00000042415544EE
:10A3D00052415445203A2035373630300A000000CB
:10A3E0004241554452415445203A203131353230B2
:10A3F000300A00004241554452415445203A203928
:10A400003630300A0000000011D302000A0A0A0A9E
:10A410000A0A0A0A0A0A2563256300000249002085
:10A4200088704870087070472D2B00202DE9F04788
:10A430002F4FDFF8C0804FF0000987F80090D8F860
:10A440000000FCF702F8C4B22546012658F82600A1
:10A45000FBF7FBFFC0B2A84200D90546A04200D2DC
:10A460000446761CF6B2152EF0D3224A002154324F
:10A4700012F83100A84200D90546A04200D2044695
:10A48000491CC9B20329F3D31A493D71091F7C71D4
:10A49000C1F800908121B81DFBF7CCFF14486C2156
:10A4A0009430FBF7C7FF68211348FBF7C3FF02F0A6
:10A4B00099FA124A12A10020FCF70EFB0E4D00245F
:10A4C00004EB840000EBC400431922460FA10020D6
:10A4D000FCF702FB641CE4B2082CF1D3074A0EA17E
:10A4E0000020FCF7F9FABDE8F04702F0C3BA00001B
:10A4F000083E0020342B00201C3F002001EF02000A
:10A500000D0A53746172743A202573000D0A205BA2
:10A5100025645D20257300000D0A456E643A2025F0
:10A5200073000000124910B5002008804880888020
:10A53000C880042281F8C52281F8C402A1F80A0269
:10A5400081F8C60281F8C3020A490122CA70087163
:10A55000487188710849887714210848FBF76AFF19
:10A5600006481421BDE810401530FBF763BF00001A
:10A57000303B0020102B0020602E0020C93D002021
:10A5800070B5194E1949002535700D604D608D600C
:10A59000CD604FF4C0204D6100F018FC134C411CFD
:10A5A00004F1180418D0010E2171010CE170010AA8
:10A5B0006170207002F068FAE078FCF7CFFEA571B8
:10A5C000E571A572E5720021A5700122084603F02D
:10A5D000FBFA6571B56070BD1020E07065700520F4
:10A5E000207008202071E5E7A82A0020482E0020CE
:10A5F000084A002101EB810332F82330834204D161
:10A6000001EB810002EB80007047491CF2D0002072
:10A61000704700007842002070B50C464FF48876F1
:10A620000546314601F09EF850B13146284601F00A
:10A630009EF86079400703D5216809B10120884759
:10A640004FF48A763146284601F08CF850B13146F5
:10A65000284601F08CF86079000703D5216809B11C
:10A66000022088474FF48E763146284601F07AF86A
:10A6700050B13146284601F07AF86079C00603D41B
:10A68000216809B1002088474FF482763146284678
:10A6900001F068F800280CD03146284601F067F830
:10A6A000012020712168002903D0BDE870400320FB
:10A6B000084770BD0248007A002800D0012070478A
:10A6C00044450020034901200968002900D00020EA
:10A6D0007047000000E40140F0B58588AE1895424F
:10A6E00000D82A46C488AF1AE5189C4200D82346F1
:10A6F000E31A4A880488A2420CD34088824209D8CF
:10A700008888B84206D3B04204D8C888984201D39A
:10A71000A84201D90020F0BD0120F0BDF721018041
:10A7200017214180002101714171FB2181711B21A1
:10A73000C17170472DE9F047394F4FF000080546C9
:10A740004646DFF8E090D7F804A055E015B12C4656
:10A75000ED6934E099F8001001EB4100491CC9B2E1
:10A7600089F8001009EBC00099F80230001D9942E9
:10A7700001D189F8006001784468012912D00229CA
:10A7800003D003293AD178680AE0204604F056F84D
:10A7900008B14FF00108267430E00674C069786093
:10A7A00050B3FAE7217C49BB81686160C168A16050
:10A7B0000169E1604069A061F87800B16660606895
:10A7C000BA68194B811A21F07F41994202D2A068E0
:10A7D000084406E0101AA16820F07F40814202D9A7
:10A7E000081A206000E0266066600120A6602074E0
:10A7F0002046E66104F004F8002DA7D199F8001076
:10A8000099F801008142A1D1B8F1000F02D1796815
:10A81000514502D00120BDE8F0870020FBE7000091
:10A82000042C002090430020FFFF7F002DE9FE4F05
:10A830004FF400674FF4C4244020FFF7F3FA20469A
:10A8400000F0C4FA0646DFF88C903546401C4FF005
:10A85000000A3AD0280A8DF800008DF80150062031
:10A8600002226946FFF7C6FAFCF73CF80028FBD144
:10A87000DFF8648015F0030002D0C0F10400064444
:10A8800000241AE008EB840000F0A0FA010E8DF815
:10A890000310010C8DF80210010A8DF801108DF8DB
:10A8A000000007EB840080B204226946FFF7A2FA99
:10A8B000FCF718F80028FBD1641CB442E2D3A9F8D5
:10A8C00006A0A9F80450BDE8FE8FA9F804A0A9F8D5
:10A8D00006A0F8E7303B002004200600ACB000F0F2
:10A8E00019FAFDF75BFC08B1FDF738FC954A012128
:10A8F0009548FDF73FFC08B1FDF730FC0B210D201A
:10A9000004F078F8142311221321122000F06AFABF
:10A9100000F034FF08B1FDF721FC01F003F808B1A5
:10A92000FDF71CFC002569460120009500F046FF5C
:10A9300008B1FDF713FC684600F090FF08B1FDF781
:10A940000DFC9DF8080081A120F00F00401C20F0B4
:10A95000F00010308DF80800092202A87CDF08B151
:10A96000FDF7FCFB28200095ADF800000195ADF83F
:10A9700004504FF4C8705024ADF80600ADF8024002
:10A9800068467ADF08B1FDF7E9FBFFF701FB724883
:10A99000019001A9714800F062FC08B1FDF7DEFBEF
:10A9A0006F48009069466F48FEF712FE08B1FDF748
:10A9B000D5FBAC216846FBF73DFD02208DF8000079
:10A9C0008DF8025006208DF803000120ADF84C00F0
:10A9D00064498DF87C0064481839299014915F48C7
:10A9E00069460C30CDE92245FEF7FCF908B1FDF7C8
:10A9F000B5FB5A4801210C30FEF7F1F91C216846DD
:10AA0000FBF718FD4FF42030CDE900504FF47020D3
:10AA1000029003208DF80C0054480590544806908D
:10AA2000ADF80E508DF810506846FEF7B7FB08B130
:10AA3000FDF794FBFFF730FB434C04F1100007C80F
:10AA40008DE8070068464B4901F088F908B1FDF729
:10AA500085FB44481E3801F051F908B1FDF77EFB33
:10AA600001F06EF900224FF4A4712068FDF7C0FBDD
:10AA7000FFF7D4FCFFF7DAFCFFF754FDFFF7D6FE33
:10AA8000FFF77EFDFDF726FD10B1FFF779FD17E01A
:10AA9000394841784FF4165005290FD2DFE801F00C
:10AAA0000E0306090C004FF4964007E04FF41640E1
:10AAB00004E04FF4614001E04FF4E13003F0F8FFAF
:10AAC000FFF7B0FA4FF0A046B7000546C6F8087584
:10AAD0000024DFF8A880DFF8A890FFF7A3FA401B56
:10AAE00032280FD9FFF79EFA0546C9F80080D6F83C
:10AAF000040527EA0001C6F8081500F08040C6F8F2
:10AB00000C05641C062CE8D3C6F80875FFF790FA0C
:10AB1000FFF7D0FAFCF7C6F8012002F071FCFDF750
:10AB2000C7FA03F0ADF8FEF71FF816A10020FBF7F7
:10AB3000D3FF44464D462C60002003F0C9F901F0D4
:10AB4000D1FDF8E78DE7020068EE020053686F70F0
:10AB50004F6E616972000000A5B70200CC3800207A
:10AB6000ADBD0200F02A0020C9BD0200DDBD02001B
:10AB7000E79C0200D9EC0200602E00203546526EA0
:10AB8000000601400D0A20537461727420417070F8
:10AB90002E2E000070B505460E468088144611889A
:10ABA000021D0A44801C9A4201D8FE2801D90C20BB
:10ABB00070BD401C70542088FF21401C80B2208052
:10ABC00031542088401C80B220808119288803F0ED
:10ABD00099FF2188084480B22080AA8842B1A968E0
:10ABE00041B13044FBF70DFC2088A988084420803F
:10ABF000002070BD072070BDF8B50F4601781446DF
:10AC00000546012901D1687830B12088821C9A421A
:10AC100032D8012902D006E00720F8BD6978014446
:10AC2000891C994228D8181A801E86B2ADF8006097
:10AC30002188B81C084469467DDF0028EDD12978B9
:10AC4000022904D06878BDF80020904205D3BDF8F1
:10AC50000000B04201D809200AE00820012905D1EE
:10AC60006978B14202D8ADF8001001E0ADF800609B
:10AC7000BDF80010FE2901D90C20F8BD2288491C1E
:10AC8000B9542188491C89B2218078542088401CFD
:10AC90002080BDF80010084420800020F8BD00008E
:10ACA00010B5FBF713FE002811D0094C607800287E
:10ACB0000DD13B21A08876DF38B1082805D01328B4
:10ACC00003D0112801D0FDF749FA0120607010BDB2
:10ACD000D02A002010B50024024623464FF4C42198
:10ACE000034800F0A1FB00B90124204610BD00007C
:10ACF000342C002010B50024024623464FF4C02116
:10AD0000034800F091FB00B90124204610BD00006B
:10AD1000342C002010B51E2000F096FC042000F01A
:10AD200093FC1F2000F090FC022000F08DFC03201B
:10AD300000F08AFC0C2000F087FC0D2000F084FC61
:10AD40004FF0A0444FF40050C4F80C05102004F25A
:10AD50000C5400F079FC102000F0C3FC00211620F8
:10AD600000F069FC0321152000F065FC002107209C
:10AD700000F061FC1E2000F0B4FC042000F0B1FCE7
:10AD80001F2000F0AEFC022000F0ABFC032000F01E
:10AD9000A8FC0C2000F0A5FC172000F055FC1820A2
:10ADA00000F052FC192000F04FFC172000F099FC35
:10ADB0004FF00070206010BD034900B50860FFF738
:10ADC00081FC0028FBD100BD04E50140044900B529
:10ADD0000968024611B10020FFF7EEFF106800BDC0
:10ADE00004E501402DE9F0470F464FF040210124D2
:10ADF0009846914682464C610A2000F0D5FA1B4ED7
:10AE0000002030600A2000F0CFFA00F035F8184D2D
:10AE1000310501EB88010320C5F81080C1F8000757
:10AE2000404600F065FC68688760C0F80490C0F890
:10AE300000A00E4AE1072432116007213160EA6860
:10AE4000402111600B4AE02182F800141021121FEA
:10AE5000C2F800118168002900DA00244068002847
:10AE600000DA00242046BDE8F087000000450040DD
:10AE7000C02B002004E000E04FF040200021C0F88B
:10AE80000411C0F81011C0F81811C0F82011C0F852
:10AE90004C11704738B50C4600210091134601460D
:10AEA0002246044800F05EFB08B1002038BD0120B6
:10AEB00038BD0000342C00202DE9FE432A4D41F618
:10AEC00064460024C8B1AC706E81284B02226946EA
:10AED0000020FEF77DFFFBF705FD0028FBD19DF864
:10AEE00003004FF6FF7101EA00209DF804100844AA
:10AEF0000004000CA8810DD001E0A88948B11B4BCB
:10AF0000012269466889FEF763FF194FDFF8648004
:10AF100004E00120BDE8FE83C8F80070FBF7E2FC06
:10AF20000028F9D19DF8030003F0A4FD6889401CB6
:10AF30006881A889401E80B2A8819DF803101B2952
:10AF400006D0AA780AB1692905D0AC7030B109E001
:10AF50000121A970FAE7052804D2AC816E81AC709A
:10AF60000320D7E70220D5E7102B002059D4020098
:10AF70003546526E0006014010B5FBF796F908B150
:10AF8000002010BD112010BD10B531B1B2FBF3F49B
:10AF900003FB14241CB1092010BD0E2010BD01605C
:10AFA0000021416081608281C381084610BD70B577
:10AFB0000D460446FBF72EF9002802D029882068A8
:10AFC000084470BD10B50A8849888A4203D1FBF74E
:10AFD00063F9012010BD002010BD70B50D46044678
:10AFE000FBF73DF9002802D069882068084470BD4D
:10AFF00010B50A8849888A4203D1FBF727F9012056
:10B0000010BD002010BD01F01F0301229A40D24361
:10B01000490900EB8100114600F018B84A0950F8C0
:10B02000220001F01F0201219140084000D00120C0
:10B0300070470A4601F01F0301219940520900EBB5
:10B04000820000F00EB8012100F006B808B56A468B
:10B05000FBF75DF9009808BD08B56A46FBF74AF9A9
:10B0600008BD08B56A46FBF745F9009808BDC20857
:10B0700000F007030120895C98400840704710B534
:10B08000C20800F007008B5C0124844023438B54EA
:10B0900010BD28B1A1F11702E12A03D307207047A0
:10B0A0000E20704701800020704770B505000FD05A
:10B0B000F720296128806880FB202871002405EB97
:10B0C000C400801DFFF72AFB641CF8D0002070BD6F
:10B0D0000E2070BD2DE9F047B0F804A08EB00C46EC
:10B0E0005FEA0A0957D10188564E01270025242915
:10B0F0007BD006DC102909D0112929D0232926D19B
:10B1000099E03A2928D0552921D147E021792173A6
:10B11000C07BA61D012802D0022804D101E02088AE
:10B1200000E06088308031887088814208D94846C4
:10B13000A5DF10B1112802D002E0777100E037716D
:10B14000B179F07981426BD94846FEF731FE67E06C
:10B15000A01DFFF7E3FA63E02246408934F8061F9A
:10B16000814200D808466080172800D217206080EE
:10B17000106970B1607960B1D6E90001CDE90001D4
:10B18000ADF802906088ADF8040013696946104676
:10B190009847657125710EB0BDE8F087C08804F14D
:10B1A0000608172800D21720B8F80010814200D8EE
:10B1B0000846A8F8020088F804502846B8F800109D
:10B1C000B5DF98F8050058BB206948B3D6E90201FD
:10B1D000CDE90001ADF80290B8F80200ADF8040026
:10B1E0002046694622691AE0FFE7011D2C226846C5
:10B1F000FBF707F9BDF80000BDF8042004EBC0011F
:10B200004A73226962B1D6E90423CDE90B23ADF874
:10B210002E00487B8DF83000226920460BA990470C
:10B22000A07A0028B7D0E1885046A5DF0028B2D127
:10B23000A572E772AFE7017A207B884284D201468B
:10B2400082E7000008F0020020B10278DE2A03D075
:10B25000082070470E20704741800020704760B181
:10B2600059B10278DE2A0AD009684160DE210170F6
:10B270004FF6FF714180002070470E207047082074
:10B2800070477FB5054600294DD0002D4BD008787A
:10B290000C46DE2847D1A8886188884202D1204622
:10B2A00003F088FC2888012825D002283BD01128EB
:10B2B0003AD0512837D135F8040F6188884232D10D
:10B2C000A878A91C02282ED1087A042803D00628C1
:10B2D00001D0052827D10020009002228DF80020FF
:10B2E00001904FF4C07202900390ADF80420097AE7
:10B2F00005290FD010E0297A2046012913D1A98809
:10B30000428891420FD10121017204B0BDE8704022
:10B3100003F050BCADF8040028886946B0DF00286F
:10B3200001D0616888477FBDA88861888842FAD1CA
:10B330004FF6FF7060807FBD00F1804000680028FC
:10B3400000D00120704708B500F180400021016065
:10B350000068009008BD000070B5040007D0044DDF
:10B360004FF47A46691C30468847641EFAD170BD96
:10B3700060EE020070B5040006D04FF47A752846DE
:10B3800000F0AAFB641EFAD170BD000070B5040085
:10B3900007D0044D4FF47A46691C30468847641E36
:10B3A000FAD170BDD0EE020070B5040006D04FF4A3
:10B3B0007A75284600F098FB641EFAD170BD000033
:10B3C00070B50B4C207808B185250FE00020A060F7
:10B3D00060602061E060074800F060FB054600F017
:10B3E000EDFA08B900F044FB01202070284670BD3A
:10B3F00020430020099B020038B500258DF800503D
:10B400006846FCF747FF074CE068401EE060E068D4
:10B4100010B900F053FBA5709DF80000FCF75CFF2D
:10B4200038BD0000204300202DE9F0411F4615469D
:10B4300004000E4616D02068B8B1C5B16068026835
:10B44000501E304215D16A432046FCF725FE80B1DC
:10B4500020683B462A46D0F810C031462046BDE859
:10B46000F04160470E20BDE8F0810820FBE709208D
:10B47000F9E71020F7E720B119B101600B68114618
:10B4800018470E2070470000044801214174007ADB
:10B4900008B100207047012070470000444500209B
:10B4A000012801D0032808D10449002201284A7448
:10B4B00000D00020087401F037BF704744450020D9
:10B4C00070B50146022801D0032946D1234C207AC9
:10B4D000002842D0012834D0022832D1204800234D
:10B4E0000229006802D003292BD119E0E360027918
:10B4F00012B1012A1BD10CE0D0E90565721B4FF493
:10B500008056B24200D332462A44826104E00122CE
:10B510000EE00269521C02614569AA42F7D006E0BA
:10B52000E268521CE260082A01D9E360EFE70022DA
:10B530003AB1237202290AD00D21FEF7C3FC01F0B3
:10B54000E9FE607C28B1BDE8704000F03DBA002102
:10B55000F3E7BDE8704001F0E7BE70BD4445002050
:10B56000182C00202DE9F8431D46089F16468846F2
:10B5700004000DD066B1206860B135B160684068E4
:10B58000B5FBF0F100FB115030B10920BDE8F883A4
:10B590000E20FBE70820F9E74046FCF777FD90B165
:10B5A0003046FCF773FD70B12A4641462046FCF751
:10B5B00073FD40B1009720682B463246C76841466C
:10B5C0002046B847E2E71020E0E770B541EA4201C3
:10B5D000DDE904454FF0A04641EA830141EA042138
:10B5E00006EB800041EA0541C0F8001770BD70B558
:10B5F00041EA4201DDE904454FF0A04641EA8301FA
:10B6000041EA042106EB800041EA0541C0F8001739
:10B6100070BD70B541EA4201DDE904454FF0A04636
:10B6200041EA830141EA042106EB800041EA054139
:10B63000C0F8001770BD1CB500220B4600921146E1
:10B640000192FFF7C2FF1CBD1CB5002100910B4603
:10B65000012201911146FFF7B8FF1CBD4FF0A04237
:10B6600002EB8000D0F8002722F44032C0F8002717
:10B67000D0F8002742EA0141C0F8001770474FF0A8
:10B68000A04201218140C2F80C1570474FF0A04242
:10B6900001218140C2F80C1570474FF0A041D1F84C
:10B6A0001015C14001F0010070474FF0A042012188
:10B6B0008140C2F8081570474FF0A0420121814037
:10B6C000C2F8081570474FF0A04201218140C2F82E
:10B6D000081570474FF0A04201218140C2F80815BB
:10B6E00070474FF0A04201218140C2F80815704711
:10B6F0004FF0A04201218140C2F8081570474FF079
:10B70000A043D3F804150122824022EA0100C3F8C5
:10B7100008050A40C3F80C257047000018B5074B10
:10B7200044181B6800936B4605E053F82010D1F8CD
:10B730001015401C02C28442F7D818BD20F0020048
:10B74000034908B50844002101600068009008BD65
:10B750000060004002494058012800D00020704796
:10B76000006000404058002800D00120704708B514
:10B77000002242504058009008BD0000064910B514
:10B7800000204870091D0860BFF35F8F034904481B
:10B7900000F046F9002010BD202C002080F00200AF
:10B7A00058450020FCF7DABC20B103490968016064
:10B7B000002070470E20704704F10200FEB50646D7
:10B7C0000C460846FFF7F0FF002845D100250095FC
:10B7D0000195012706208DF80060ADF80400029560
:10B7E0008DF8027069462020226869DF00958DF887
:10B7F00001708DF80250019502958DF8035069464D
:10B800004020226869DF00958DF80060F720ADF8D0
:10B8100002000195029569462320226869DF0095A0
:10B8200002208DF8000001950295694601202268EA
:10B8300069DF4FF4B0600090019502956946A12040
:10B84000226869DF0095019502958DF800506946E0
:10B85000A020226869DF0020FEBD000060DF002814
:10B8600002D1024A01211170704700002B2C0020E8
:10B8700030B51548ADF5017D0078002820D04FF493
:10B88000FA74ADF8004280A9684661DF38B1052836
:10B8900016D00DF5017DBDE83040FCF75FBC6D466C
:10B8A0000A497DA800F0BCF806E0D0E9002128464E
:10B8B00090477DA800F0CBF87F980028E1D0F4E70E
:10B8C0000DF5017D30BD00002B2C002008F1020099
:10B8D000F8B5134D2878C0B10120A87001F01CFE06
:10B8E000112814D0022001F02FFE00248DF8004012
:10B8F0006846FCF7CFFC11DF06462C709DF800006F
:10B90000FCF7EAFC2EB13046F8BD0820F8BD002057
:10B91000F8BDAC7002F03CFA032001F015FEF6E72A
:10B92000282C00207CB5194E307808B108207CBD49
:10B930000120B070002001F0EFFD112819D0002087
:10B9400001F002FE12480025006801908DF80050B9
:10B950006846FCF79FFC0F4901A810DF04000AD0DD
:10B96000002030709DF80000FCF7B6FC2CB120469A
:10B970007CBD00207CBD0120F3E7B570757002F03E
:10B9800027FA012001F0E0FDF3E70000282C002059
:10B990009CF00200E58002000EB50749684600F001
:10B9A0003FF805E0D0E900108847684600F04FF8FE
:10B9B00002980028F6D10EBDB8F0020001480078C8
:10B9C00070470000282C00200548817819B10078C4
:10B9D00018B1FFF77DBF08207047FFF7A3BF000035
:10B9E000282C00201FB503A84BDF30B1052814D048
:10B9F00004B0BDE81040FCF7B1BB0849684600F050
:10BA00000FF806E0D0E9002103989047684600F05F
:10BA10001EF802980028E6D0F4E71FBD24F10200CA
:10BA2000016009684160AFF3008010B5D0E90021E2
:10BA30005368994201D1002104E0D1E90034A342C6
:10BA400002D01946816010BD08314160F0E781687D
:10BA500000290BD0026892681144816042685368E3
:10BA6000994203D108324260FFF7DFBF7047000000
:10BA700008480168012011F0010F06D14FF0E021C4
:10BA8000802281F80024C1F80001034900200860E9
:10BA90007047000000E100E018050040064902463A
:10BAA00000200B790BB1852070470A6001220A71D2
:10BAB00000224A7170470000F42B00200449012045
:10BAC000086004480168C1F300410029FAD17047B9
:10BAD0000C00004018040040002802D001498001F9
